{
  "address": "0xA3418c3EfCf01629A0951746085b2A4306cE3Ce2",
  "abi": [
    {
      "inputs": [
        {
          "internalType": "address",
          "name": "_feeReceiver",
          "type": "address"
        },
        {
          "internalType": "uint256",
          "name": "_feeNumerator",
          "type": "uint256"
        }
      ],
      "stateMutability": "nonpayable",
      "type": "constructor"
    },
    {
      "inputs": [],
      "name": "feeNumerator",
      "outputs": [
        {
          "internalType": "uint256",
          "name": "",
          "type": "uint256"
        }
      ],
      "stateMutability": "view",
      "type": "function"
    },
    {
      "inputs": [],
      "name": "feeReceiver",
      "outputs": [
        {
          "internalType": "address",
          "name": "",
          "type": "address"
        }
      ],
      "stateMutability": "view",
      "type": "function"
    },
    {
      "inputs": [
        {
          "internalType": "uint256",
          "name": "",
          "type": "uint256"
        },
        {
          "internalType": "uint256",
          "name": "_salePrice",
          "type": "uint256"
        }
      ],
      "name": "royaltyInfo",
      "outputs": [
        {
          "internalType": "address",
          "name": "",
          "type": "address"
        },
        {
          "internalType": "uint256",
          "name": "",
          "type": "uint256"
        }
      ],
      "stateMutability": "view",
      "type": "function"
    }
  ],
  "transactionHash": "0x28bf676515cbad01eee3840782c3e1e0c2f1cabad2634e6cf67233a0b7decbab",
  "args": [
    "0xE91DDb29e076923B66fE65b0FD29f58b0A364dbC",
    "70000000000000000"
  ],
  "numDeployments": 1,
  "solcInputHash": "e787e50d6c41b80f1e380d6403a6e1ff",
  "bytecode": "0x60c060405234801561001057600080fd5b5060405161029338038061029383398101604081905261002f9161004a565b60609190911b6001600160601b03191660805260a052610082565b6000806040838503121561005c578182fd5b82516001600160a01b0381168114610072578283fd5b6020939093015192949293505050565b60805160601c60a0516101de6100b56000396000818160c1015260fd0152600081816082015261013201526101de6000f3fe608060405234801561001057600080fd5b50600436106100415760003560e01c80632a55205a14610046578063b3f006741461007d578063e86dea4a146100bc575b600080fd5b61005961005436600461015c565b6100f1565b604080516001600160a01b0390931683526020830191909152015b60405180910390f35b6100a47f000000000000000000000000000000000000000000000000000000000000000081565b6040516001600160a01b039091168152602001610074565b6100e37f000000000000000000000000000000000000000000000000000000000000000081565b604051908152602001610074565b600080806101306101227f00000000000000000000000000000000000000000000000000000000000000008661017d565b670de0b6b3a7640000900490565b7f0000000000000000000000000000000000000000000000000000000000000000969095509350505050565b6000806040838503121561016e578182fd5b50508035926020909101359150565b60008160001904831182151516156101a357634e487b7160e01b81526011600452602481fd5b50029056fea26469706673582212201e9c9ba93294f305b87fb9ea3bf5e186278b87dd9e246cc353984688b7cb19a164736f6c63430008040033",
  "devdoc": {
    "kind": "dev",
    "methods": {
      "royaltyInfo(uint256,uint256)": {
        "params": {
          "_salePrice": "- the sale price of the NFT asset specified by _tokenId"
        },
        "returns": {
          "_0": "receiver - address of who should be sent the royalty payment",
          "_1": "royaltyAmount - the royalty payment amount for _salePrice"
        }
      }
    },
    "version": 1
  },
  "userdoc": {
    "kind": "user",
    "methods": {},
    "version": 1
  },
  "storageLayout": {
    "storage": [],
    "types": null
  }
}