{
  "address": "0x6d9Fd5060b1d2f0bccB978f4Fa4e814D610cA41E",
  "abi": [
    {
      "anonymous": false,
      "inputs": [
        {
          "indexed": true,
          "internalType": "address",
          "name": "owner",
          "type": "address"
        },
        {
          "indexed": true,
          "internalType": "address",
          "name": "spender",
          "type": "address"
        },
        {
          "indexed": true,
          "internalType": "uint256",
          "name": "id",
          "type": "uint256"
        }
      ],
      "name": "Approval",
      "type": "event"
    },
    {
      "anonymous": false,
      "inputs": [
        {
          "indexed": true,
          "internalType": "address",
          "name": "owner",
          "type": "address"
        },
        {
          "indexed": true,
          "internalType": "address",
          "name": "operator",
          "type": "address"
        },
        {
          "indexed": false,
          "internalType": "bool",
          "name": "approved",
          "type": "bool"
        }
      ],
      "name": "ApprovalForAll",
      "type": "event"
    },
    {
      "anonymous": false,
      "inputs": [
        {
          "indexed": true,
          "internalType": "address",
          "name": "from",
          "type": "address"
        },
        {
          "indexed": true,
          "internalType": "address",
          "name": "to",
          "type": "address"
        },
        {
          "indexed": true,
          "internalType": "uint256",
          "name": "id",
          "type": "uint256"
        }
      ],
      "name": "Transfer",
      "type": "event"
    },
    {
      "inputs": [
        {
          "internalType": "address",
          "name": "spender",
          "type": "address"
        },
        {
          "internalType": "uint256",
          "name": "id",
          "type": "uint256"
        }
      ],
      "name": "approve",
      "outputs": [],
      "stateMutability": "nonpayable",
      "type": "function"
    },
    {
      "inputs": [
        {
          "internalType": "address",
          "name": "owner",
          "type": "address"
        }
      ],
      "name": "balanceOf",
      "outputs": [
        {
          "internalType": "uint256",
          "name": "",
          "type": "uint256"
        }
      ],
      "stateMutability": "view",
      "type": "function"
    },
    {
      "inputs": [
        {
          "internalType": "uint256",
          "name": "id",
          "type": "uint256"
        }
      ],
      "name": "getApproved",
      "outputs": [
        {
          "internalType": "address",
          "name": "",
          "type": "address"
        }
      ],
      "stateMutability": "view",
      "type": "function"
    },
    {
      "inputs": [
        {
          "internalType": "address",
          "name": "owner",
          "type": "address"
        },
        {
          "internalType": "address",
          "name": "operator",
          "type": "address"
        }
      ],
      "name": "isApprovedForAll",
      "outputs": [
        {
          "internalType": "bool",
          "name": "",
          "type": "bool"
        }
      ],
      "stateMutability": "view",
      "type": "function"
    },
    {
      "inputs": [
        {
          "internalType": "address",
          "name": "to",
          "type": "address"
        },
        {
          "internalType": "uint256",
          "name": "id",
          "type": "uint256"
        }
      ],
      "name": "mint",
      "outputs": [],
      "stateMutability": "nonpayable",
      "type": "function"
    },
    {
      "inputs": [],
      "name": "name",
      "outputs": [
        {
          "internalType": "string",
          "name": "",
          "type": "string"
        }
      ],
      "stateMutability": "pure",
      "type": "function"
    },
    {
      "inputs": [
        {
          "internalType": "uint256",
          "name": "id",
          "type": "uint256"
        }
      ],
      "name": "ownerOf",
      "outputs": [
        {
          "internalType": "address",
          "name": "owner",
          "type": "address"
        }
      ],
      "stateMutability": "view",
      "type": "function"
    },
    {
      "inputs": [
        {
          "internalType": "address",
          "name": "to",
          "type": "address"
        },
        {
          "internalType": "uint256",
          "name": "id",
          "type": "uint256"
        },
        {
          "internalType": "bytes",
          "name": "data",
          "type": "bytes"
        }
      ],
      "name": "safeMint",
      "outputs": [],
      "stateMutability": "nonpayable",
      "type": "function"
    },
    {
      "inputs": [
        {
          "internalType": "address",
          "name": "to",
          "type": "address"
        },
        {
          "internalType": "uint256",
          "name": "id",
          "type": "uint256"
        }
      ],
      "name": "safeMint",
      "outputs": [],
      "stateMutability": "nonpayable",
      "type": "function"
    },
    {
      "inputs": [
        {
          "internalType": "address",
          "name": "from",
          "type": "address"
        },
        {
          "internalType": "address",
          "name": "to",
          "type": "address"
        },
        {
          "internalType": "uint256",
          "name": "id",
          "type": "uint256"
        }
      ],
      "name": "safeTransferFrom",
      "outputs": [],
      "stateMutability": "nonpayable",
      "type": "function"
    },
    {
      "inputs": [
        {
          "internalType": "address",
          "name": "from",
          "type": "address"
        },
        {
          "internalType": "address",
          "name": "to",
          "type": "address"
        },
        {
          "internalType": "uint256",
          "name": "id",
          "type": "uint256"
        },
        {
          "internalType": "bytes",
          "name": "data",
          "type": "bytes"
        }
      ],
      "name": "safeTransferFrom",
      "outputs": [],
      "stateMutability": "nonpayable",
      "type": "function"
    },
    {
      "inputs": [
        {
          "internalType": "address",
          "name": "operator",
          "type": "address"
        },
        {
          "internalType": "bool",
          "name": "approved",
          "type": "bool"
        }
      ],
      "name": "setApprovalForAll",
      "outputs": [],
      "stateMutability": "nonpayable",
      "type": "function"
    },
    {
      "inputs": [
        {
          "internalType": "bytes4",
          "name": "interfaceId",
          "type": "bytes4"
        }
      ],
      "name": "supportsInterface",
      "outputs": [
        {
          "internalType": "bool",
          "name": "",
          "type": "bool"
        }
      ],
      "stateMutability": "view",
      "type": "function"
    },
    {
      "inputs": [],
      "name": "symbol",
      "outputs": [
        {
          "internalType": "string",
          "name": "",
          "type": "string"
        }
      ],
      "stateMutability": "pure",
      "type": "function"
    },
    {
      "inputs": [
        {
          "internalType": "uint256",
          "name": "tokenId",
          "type": "uint256"
        }
      ],
      "name": "tokenURI",
      "outputs": [
        {
          "internalType": "string",
          "name": "",
          "type": "string"
        }
      ],
      "stateMutability": "view",
      "type": "function"
    },
    {
      "inputs": [],
      "name": "totalSupply",
      "outputs": [
        {
          "internalType": "uint256",
          "name": "",
          "type": "uint256"
        }
      ],
      "stateMutability": "view",
      "type": "function"
    },
    {
      "inputs": [
        {
          "internalType": "address",
          "name": "from",
          "type": "address"
        },
        {
          "internalType": "address",
          "name": "to",
          "type": "address"
        },
        {
          "internalType": "uint256",
          "name": "id",
          "type": "uint256"
        }
      ],
      "name": "transferFrom",
      "outputs": [],
      "stateMutability": "nonpayable",
      "type": "function"
    }
  ],
  "transactionHash": "0xd07f8f38b70bc8e24d7fca3e06a188ae33cf14776edca09cd066c303db111c27",
  "args": [],
  "numDeployments": 1,
  "solcInputHash": "4ad5d465a464d7539ad6ec7eb5908f3a",
  "bytecode": "0x608060405234801561001057600080fd5b50611bba806100206000396000f3fe608060405234801561001057600080fd5b506004361061011b5760003560e01c80636352211e116100b2578063a144819411610081578063b88d4fde11610066578063b88d4fde1461031b578063c87b56dd1461032e578063e985e9c51461034157600080fd5b8063a1448194146102f5578063a22cb4651461030857600080fd5b80636352211e1461028357806370a08231146102965780638832e6e3146102a957806395d89b41146102bc57600080fd5b806318160ddd116100ee57806318160ddd1461021957806323b872dd1461024a57806340c10f191461025d57806342842e0e1461027057600080fd5b806301ffc9a71461012057806306fdde0314610148578063081812fc1461018a578063095ea7b314610204575b600080fd5b61013361012e366004611678565b6103a9565b60405190151581526020015b60405180910390f35b60408051808201909152600781527f527562794e46540000000000000000000000000000000000000000000000000060208201525b60405161013f91906116c8565b6101df610198366004611719565b60009081527f57b5988df17516e060374e0264a58e0f7554bffd3e2b9548bacecce82610e278602052604090205473ffffffffffffffffffffffffffffffffffffffff1690565b60405173ffffffffffffffffffffffffffffffffffffffff909116815260200161013f565b610217610212366004611756565b61048e565b005b7f57b5988df17516e060374e0264a58e0f7554bffd3e2b9548bacecce82610e275545b60405190815260200161013f565b610217610258366004611780565b610609565b61021761026b366004611756565b61095c565b61021761027e366004611780565b6109e8565b6101df610291366004611719565b610b38565b61023c6102a43660046117bc565b610bce565b6102176102b7366004611820565b610c7b565b60408051808201909152600481527f5255425900000000000000000000000000000000000000000000000000000000602082015261017d565b610217610303366004611756565b610d0b565b61021761031636600461187a565b610d93565b6102176103293660046118b6565b610e49565b61017d61033c366004611719565b610f89565b61013361034f366004611925565b73ffffffffffffffffffffffffffffffffffffffff91821660009081527f57b5988df17516e060374e0264a58e0f7554bffd3e2b9548bacecce82610e2796020908152604080832093909416825291909152205460ff1690565b60007f01ffc9a7000000000000000000000000000000000000000000000000000000007fffffffff000000000000000000000000000000000000000000000000000000008316148061043c57507f80ac58cd000000000000000000000000000000000000000000000000000000007fffffffff000000000000000000000000000000000000000000000000000000008316145b8061048857507f5b5e139f000000000000000000000000000000000000000000000000000000007fffffffff000000000000000000000000000000000000000000000000000000008316145b92915050565b60008181527f57b5988df17516e060374e0264a58e0f7554bffd3e2b9548bacecce82610e27660205260409020547f57b5988df17516e060374e0264a58e0f7554bffd3e2b9548bacecce82610e2759073ffffffffffffffffffffffffffffffffffffffff1633811480610534575073ffffffffffffffffffffffffffffffffffffffff81166000908152600483016020908152604080832033845290915290205460ff165b6105855760405162461bcd60e51b815260206004820152600e60248201527f4e4f545f415554484f52495a454400000000000000000000000000000000000060448201526064015b60405180910390fd5b600083815260038301602052604080822080547fffffffffffffffffffffffff00000000000000000000000000000000000000001673ffffffffffffffffffffffffffffffffffffffff88811691821790925591518693918516917f8c5be1e5ebec7d5bd14f71427d1e84f3dd0314c0f7b2291e5b200ac8c7c3b92591a450505050565b60008181527f57b5988df17516e060374e0264a58e0f7554bffd3e2b9548bacecce82610e27660205260409020547f57b5988df17516e060374e0264a58e0f7554bffd3e2b9548bacecce82610e2759073ffffffffffffffffffffffffffffffffffffffff8581169116146106c05760405162461bcd60e51b815260206004820152600a60248201527f57524f4e475f46524f4d00000000000000000000000000000000000000000000604482015260640161057c565b73ffffffffffffffffffffffffffffffffffffffff83166107235760405162461bcd60e51b815260206004820152601160248201527f494e56414c49445f524543495049454e54000000000000000000000000000000604482015260640161057c565b3373ffffffffffffffffffffffffffffffffffffffff85161480610779575073ffffffffffffffffffffffffffffffffffffffff84166000908152600482016020908152604080832033845290915290205460ff165b806107a95750600082815260038201602052604090205473ffffffffffffffffffffffffffffffffffffffff1633145b6107f55760405162461bcd60e51b815260206004820152600e60248201527f4e4f545f415554484f52495a4544000000000000000000000000000000000000604482015260640161057c565b6040517f7cbab1c700000000000000000000000000000000000000000000000000000000815273ffffffffffffffffffffffffffffffffffffffff808616600483015284166024820152604481018390523090637cbab1c790606401600060405180830381600087803b15801561086b57600080fd5b505af115801561087f573d6000803e3d6000fd5b50505073ffffffffffffffffffffffffffffffffffffffff8086166000818152600285016020908152604080832080547fffffffffffffffffffffffffffffffffffffffffffffffffffffffffffffffff019055938816808352848320805460019081019091558884528701825284832080547fffffffffffffffffffffffff0000000000000000000000000000000000000000908116831790915560038801909252848320805490921690915592518694507fddf252ad1be2c89b69c2b068fc378daa952ba7f163c4a11628f55a4df523b3ef9190a450505050565b3360009081527f4973bd83c52c20d8da0afd0601fa08313c8e1c8be97b9487d8f935959fa7c33b602052604090205460ff166109da5760405162461bcd60e51b815260206004820152600a60248201527f4e4f545f4d494e54455200000000000000000000000000000000000000000000604482015260640161057c565b6109e4828261104b565b5050565b6109f3838383610609565b73ffffffffffffffffffffffffffffffffffffffff82163b1580610ae757506040517f150b7a020000000000000000000000000000000000000000000000000000000080825233600483015273ffffffffffffffffffffffffffffffffffffffff858116602484015260448301849052608060648401526000608484015290919084169063150b7a029060a4016020604051808303816000875af1158015610a9f573d6000803e3d6000fd5b505050506040513d601f19601f82011682018060405250810190610ac39190611958565b7fffffffff0000000000000000000000000000000000000000000000000000000016145b610b335760405162461bcd60e51b815260206004820152601060248201527f554e534146455f524543495049454e5400000000000000000000000000000000604482015260640161057c565b505050565b60008181527f57b5988df17516e060374e0264a58e0f7554bffd3e2b9548bacecce82610e276602052604090205473ffffffffffffffffffffffffffffffffffffffff1680610bc95760405162461bcd60e51b815260206004820152600a60248201527f4e4f545f4d494e54454400000000000000000000000000000000000000000000604482015260640161057c565b919050565b600073ffffffffffffffffffffffffffffffffffffffff8216610c335760405162461bcd60e51b815260206004820152600c60248201527f5a45524f5f414444524553530000000000000000000000000000000000000000604482015260640161057c565b5073ffffffffffffffffffffffffffffffffffffffff1660009081527f57b5988df17516e060374e0264a58e0f7554bffd3e2b9548bacecce82610e277602052604090205490565b3360009081527f4973bd83c52c20d8da0afd0601fa08313c8e1c8be97b9487d8f935959fa7c33b602052604090205460ff16610cf95760405162461bcd60e51b815260206004820152600a60248201527f4e4f545f4d494e54455200000000000000000000000000000000000000000000604482015260640161057c565b610d058484848461128a565b50505050565b3360009081527f4973bd83c52c20d8da0afd0601fa08313c8e1c8be97b9487d8f935959fa7c33b602052604090205460ff16610d895760405162461bcd60e51b815260206004820152600a60248201527f4e4f545f4d494e54455200000000000000000000000000000000000000000000604482015260640161057c565b6109e482826113c3565b3360008181527f57b5988df17516e060374e0264a58e0f7554bffd3e2b9548bacecce82610e2796020908152604080832073ffffffffffffffffffffffffffffffffffffffff87168085529083529281902080547fffffffffffffffffffffffffffffffffffffffffffffffffffffffffffffff001686151590811790915590519081529192917f17307eab39ab6107e8899845ad3d59bd9653f200f220920489ca2b5937696c31910160405180910390a35050565b610e54858585610609565b73ffffffffffffffffffffffffffffffffffffffff84163b1580610f3657506040517f150b7a02000000000000000000000000000000000000000000000000000000008082529073ffffffffffffffffffffffffffffffffffffffff86169063150b7a0290610ecf9033908a90899089908990600401611975565b6020604051808303816000875af1158015610eee573d6000803e3d6000fd5b505050506040513d601f19601f82011682018060405250810190610f129190611958565b7fffffffff0000000000000000000000000000000000000000000000000000000016145b610f825760405162461bcd60e51b815260206004820152601060248201527f554e534146455f524543495049454e5400000000000000000000000000000000604482015260640161057c565b5050505050565b60008181527f57b5988df17516e060374e0264a58e0f7554bffd3e2b9548bacecce82610e276602052604090205460609073ffffffffffffffffffffffffffffffffffffffff1661101c5760405162461bcd60e51b815260206004820152600a60248201527f4e4f545f4d494e54454400000000000000000000000000000000000000000000604482015260640161057c565b6110258261150a565b60405160200161103591906119f4565b6040516020818303038152906040529050919050565b73ffffffffffffffffffffffffffffffffffffffff82166110ae5760405162461bcd60e51b815260206004820152601160248201527f494e56414c49445f524543495049454e54000000000000000000000000000000604482015260640161057c565b60008181527f57b5988df17516e060374e0264a58e0f7554bffd3e2b9548bacecce82610e27660205260409020547f57b5988df17516e060374e0264a58e0f7554bffd3e2b9548bacecce82610e2759073ffffffffffffffffffffffffffffffffffffffff16156111615760405162461bcd60e51b815260206004820152600e60248201527f414c52454144595f4d494e544544000000000000000000000000000000000000604482015260640161057c565b6040517f7cbab1c70000000000000000000000000000000000000000000000000000000081526000600482015273ffffffffffffffffffffffffffffffffffffffff84166024820152604481018390523090637cbab1c790606401600060405180830381600087803b1580156111d657600080fd5b505af11580156111ea573d6000803e3d6000fd5b505082546001908101845573ffffffffffffffffffffffffffffffffffffffff861660008181526002860160209081526040808320805486019055888352938701905282812080547fffffffffffffffffffffffff0000000000000000000000000000000000000000168317905591518694509092507fddf252ad1be2c89b69c2b068fc378daa952ba7f163c4a11628f55a4df523b3ef908290a4505050565b611294848461104b565b73ffffffffffffffffffffffffffffffffffffffff84163b158061137757506040517f150b7a02000000000000000000000000000000000000000000000000000000008082529073ffffffffffffffffffffffffffffffffffffffff86169063150b7a0290611310903390600090899089908990600401611975565b6020604051808303816000875af115801561132f573d6000803e3d6000fd5b505050506040513d601f19601f820116820180604052508101906113539190611958565b7fffffffff0000000000000000000000000000000000000000000000000000000016145b610d055760405162461bcd60e51b815260206004820152601060248201527f554e534146455f524543495049454e5400000000000000000000000000000000604482015260640161057c565b6113cd828261104b565b73ffffffffffffffffffffffffffffffffffffffff82163b15806114be57506040517f150b7a0200000000000000000000000000000000000000000000000000000000808252336004830152600060248301819052604483018490526080606484015260848301529073ffffffffffffffffffffffffffffffffffffffff84169063150b7a029060a4016020604051808303816000875af1158015611476573d6000803e3d6000fd5b505050506040513d601f19601f8201168201806040525081019061149a9190611958565b7fffffffff0000000000000000000000000000000000000000000000000000000016145b6109e45760405162461bcd60e51b815260206004820152601060248201527f554e534146455f524543495049454e5400000000000000000000000000000000604482015260640161057c565b60608160000361154d57505060408051808201909152600181527f3000000000000000000000000000000000000000000000000000000000000000602082015290565b8160005b8115611577578061156181611a68565b91506115709050600a83611acf565b9150611551565b60008167ffffffffffffffff81111561159257611592611ae3565b6040519080825280601f01601f1916602001820160405280156115bc576020820181803683370190505b5090505b841561163f576115d1600183611b12565b91506115de600a86611b29565b6115e9906030611b3d565b60f81b8183815181106115fe576115fe611b55565b60200101907effffffffffffffffffffffffffffffffffffffffffffffffffffffffffffff1916908160001a905350611638600a86611acf565b94506115c0565b949350505050565b7fffffffff000000000000000000000000000000000000000000000000000000008116811461167557600080fd5b50565b60006020828403121561168a57600080fd5b813561169581611647565b9392505050565b60005b838110156116b757818101518382015260200161169f565b83811115610d055750506000910152565b60208152600082518060208401526116e781604085016020870161169c565b601f017fffffffffffffffffffffffffffffffffffffffffffffffffffffffffffffffe0169190910160400192915050565b60006020828403121561172b57600080fd5b5035919050565b803573ffffffffffffffffffffffffffffffffffffffff81168114610bc957600080fd5b6000806040838503121561176957600080fd5b61177283611732565b946020939093013593505050565b60008060006060848603121561179557600080fd5b61179e84611732565b92506117ac60208501611732565b9150604084013590509250925092565b6000602082840312156117ce57600080fd5b61169582611732565b60008083601f8401126117e957600080fd5b50813567ffffffffffffffff81111561180157600080fd5b60208301915083602082850101111561181957600080fd5b9250929050565b6000806000806060858703121561183657600080fd5b61183f85611732565b935060208501359250604085013567ffffffffffffffff81111561186257600080fd5b61186e878288016117d7565b95989497509550505050565b6000806040838503121561188d57600080fd5b61189683611732565b9150602083013580151581146118ab57600080fd5b809150509250929050565b6000806000806000608086880312156118ce57600080fd5b6118d786611732565b94506118e560208701611732565b935060408601359250606086013567ffffffffffffffff81111561190857600080fd5b611914888289016117d7565b969995985093965092949392505050565b6000806040838503121561193857600080fd5b61194183611732565b915061194f60208401611732565b90509250929050565b60006020828403121561196a57600080fd5b815161169581611647565b600073ffffffffffffffffffffffffffffffffffffffff808816835280871660208401525084604083015260806060830152826080830152828460a0840137600060a0848401015260a07fffffffffffffffffffffffffffffffffffffffffffffffffffffffffffffffe0601f85011683010190509695505050505050565b7f68747470733a2f2f6465666963616b652f000000000000000000000000000000815260008251611a2c81601185016020870161169c565b9190910160110192915050565b7f4e487b7100000000000000000000000000000000000000000000000000000000600052601160045260246000fd5b60007fffffffffffffffffffffffffffffffffffffffffffffffffffffffffffffffff8203611a9957611a99611a39565b5060010190565b7f4e487b7100000000000000000000000000000000000000000000000000000000600052601260045260246000fd5b600082611ade57611ade611aa0565b500490565b7f4e487b7100000000000000000000000000000000000000000000000000000000600052604160045260246000fd5b600082821015611b2457611b24611a39565b500390565b600082611b3857611b38611aa0565b500690565b60008219821115611b5057611b50611a39565b500190565b7f4e487b7100000000000000000000000000000000000000000000000000000000600052603260045260246000fdfea26469706673582212206083e161eaa7c5ffc5c5c1906f73e707e0ade6f246f3030319f068ff74adb18964736f6c634300080d0033",
  "devdoc": {
    "author": "EIP2325 implementation by DefiCake (https://github.com/DefiCake), based on solmate. Additional features:             - onBeforeTokenTransfer hook",
    "kind": "dev",
    "methods": {},
    "version": 1
  },
  "userdoc": {
    "kind": "user",
    "methods": {},
    "notice": "Modern, minimalist, and gas efficient ERC-721 implementation. Based on Solmate (https://github.com/Rari-Capital/solmate/blob/main/src/tokens/ERC721.sol)",
    "version": 1
  },
  "storageLayout": {
    "storage": [],
    "types": null
  }
}