{
  "address": "0xCeCe467CBaae4f442EC73ab7A95a67Ab5f54b2f1",
  "abi": [
    {
      "inputs": [
        {
          "internalType": "address",
          "name": "_pool",
          "type": "address"
        }
      ],
      "stateMutability": "nonpayable",
      "type": "constructor"
    },
    {
      "anonymous": false,
      "inputs": [
        {
          "indexed": false,
          "internalType": "uint256",
          "name": "globalEarnedWei",
          "type": "uint256"
        },
        {
          "indexed": false,
          "internalType": "uint256",
          "name": "accruedWeiPerShare",
          "type": "uint256"
        },
        {
          "indexed": false,
          "internalType": "uint256",
          "name": "balance",
          "type": "uint256"
        }
      ],
      "name": "AccruedRoyalties",
      "type": "event"
    },
    {
      "anonymous": false,
      "inputs": [
        {
          "indexed": true,
          "internalType": "address",
          "name": "user",
          "type": "address"
        },
        {
          "indexed": false,
          "internalType": "uint256",
          "name": "earnt",
          "type": "uint256"
        },
        {
          "indexed": false,
          "internalType": "uint256",
          "name": "debt",
          "type": "uint256"
        },
        {
          "indexed": false,
          "internalType": "uint256",
          "name": "withdrawableWei",
          "type": "uint256"
        },
        {
          "indexed": false,
          "internalType": "uint256",
          "name": "newDebtWei",
          "type": "uint256"
        }
      ],
      "name": "LockerUpdated",
      "type": "event"
    },
    {
      "anonymous": false,
      "inputs": [
        {
          "indexed": true,
          "internalType": "address",
          "name": "sender",
          "type": "address"
        },
        {
          "indexed": false,
          "internalType": "uint256",
          "name": "amount",
          "type": "uint256"
        },
        {
          "indexed": false,
          "internalType": "uint256",
          "name": "balance",
          "type": "uint256"
        }
      ],
      "name": "WithdrawnRoyalties",
      "type": "event"
    },
    {
      "inputs": [],
      "name": "accrueRoyalties",
      "outputs": [
        {
          "internalType": "uint256",
          "name": "accruedRoyalties",
          "type": "uint256"
        }
      ],
      "stateMutability": "nonpayable",
      "type": "function"
    },
    {
      "inputs": [
        {
          "internalType": "address",
          "name": "from",
          "type": "address"
        },
        {
          "internalType": "address",
          "name": "to",
          "type": "address"
        },
        {
          "internalType": "uint256",
          "name": "",
          "type": "uint256"
        }
      ],
      "name": "beforeTokenTransfer",
      "outputs": [],
      "stateMutability": "nonpayable",
      "type": "function"
    },
    {
      "inputs": [],
      "name": "pool",
      "outputs": [
        {
          "internalType": "address",
          "name": "",
          "type": "address"
        }
      ],
      "stateMutability": "view",
      "type": "function"
    },
    {
      "inputs": [],
      "name": "withdrawRoyalties",
      "outputs": [
        {
          "internalType": "uint256",
          "name": "",
          "type": "uint256"
        }
      ],
      "stateMutability": "nonpayable",
      "type": "function"
    }
  ],
  "transactionHash": "0x415e03b695eca4c1086e9df40ddf38d9bd4a6c0996491fb0d2a5e04d6c89bec4",
  "args": [
    "0x39492c2d2fcd7Fc07718969D5e9e9508C22b8211"
  ],
  "numDeployments": 1,
  "solcInputHash": "4ad5d465a464d7539ad6ec7eb5908f3a",
  "bytecode": "0x60a060405234801561001057600080fd5b5060405161086338038061086383398101604081905261002f91610040565b6001600160a01b0316608052610070565b60006020828403121561005257600080fd5b81516001600160a01b038116811461006957600080fd5b9392505050565b6080516107d2610091600039600081816056015261032701526107d26000f3fe608060405234801561001057600080fd5b506004361061004c5760003560e01c806316f0115b1461005157806321c34fcb146100a25780632fb3c60f146100b85780637cbab1c7146100c0575b600080fd5b6100787f000000000000000000000000000000000000000000000000000000000000000081565b60405173ffffffffffffffffffffffffffffffffffffffff90911681526020015b60405180910390f35b6100aa6100d5565b604051908152602001610099565b6100aa6102a2565b6100d36100ce36600461068a565b610431565b005b60006100df6102a2565b5060006100eb336104f6565b90506000811161015c576040517f08c379a000000000000000000000000000000000000000000000000000000000815260206004820152600960248201527f4e4f5f524557415244000000000000000000000000000000000000000000000060448201526064015b60405180910390fd5b3360009081527f8ebaf164eae4346eb4be15675aaa37ea2ac794fde2938369c6be4c832f5b3fab602052604081206001018190557f8ebaf164eae4346eb4be15675aaa37ea2ac794fde2938369c6be4c832f5b3fa980547f8ebaf164eae4346eb4be15675aaa37ea2ac794fde2938369c6be4c832f5b3fa8928492916101e39084906106f5565b9091555050604051600090339084908381818185875af1925050503d806000811461022a576040519150601f19603f3d011682016040523d82523d6000602084013e61022f565b606091505b505090508061029a576040517f08c379a000000000000000000000000000000000000000000000000000000000815260206004820152600d60248201527f4554485f53454e445f4641494c000000000000000000000000000000000000006044820152606401610153565b509092915050565b7f57b5988df17516e060374e0264a58e0f7554bffd3e2b9548bacecce82610e27554600090801561042d5760007f8ebaf164eae4346eb4be15675aaa37ea2ac794fde2938369c6be4c832f5b3fa860018101546040517f19165587000000000000000000000000000000000000000000000000000000008152306004820152919250907f000000000000000000000000000000000000000000000000000000000000000073ffffffffffffffffffffffffffffffffffffffff1690631916558790602401600060405180830381600087803b15801561038057600080fd5b505af1925050508015610391575060015b50478181111561042957825482820395506000906103b090879061070c565b80855590506000856103ca670de0b6b3a764000084610724565b6103d49190610761565b600286018190556001860184905560408051848152602081018390529081018590529091507f0518620b80e48f588db70691e289ba58df5ef8e53da2063517cbe556b23813e29060600160405180910390a150505b5050505b5090565b33301461049a576040517f08c379a000000000000000000000000000000000000000000000000000000000815260206004820152601e60248201527f4f6e6c7920746865206469616d6f6e642063616e2063616c6c207468697300006044820152606401610153565b6104a26102a2565b5073ffffffffffffffffffffffffffffffffffffffff8316156104ca576104c8836104f6565b505b73ffffffffffffffffffffffffffffffffffffffff8216156104f1576104ef826104f6565b505b505050565b73ffffffffffffffffffffffffffffffffffffffff811660009081527f57b5988df17516e060374e0264a58e0f7554bffd3e2b9548bacecce82610e27760205260408120547f8ebaf164eae4346eb4be15675aaa37ea2ac794fde2938369c6be4c832f5b3faa547f8ebaf164eae4346eb4be15675aaa37ea2ac794fde2938369c6be4c832f5b3fa8908390670de0b6b3a764000090610596908590610724565b6105a09190610761565b73ffffffffffffffffffffffffffffffffffffffff861660009081526003840160205260408120549192506105d582846106f5565b845473ffffffffffffffffffffffffffffffffffffffff891660008181526003880160209081526040918290206001810186905584905581518881529081018790529081018490526060810183905292935090917f1d8610cf7fa6cd14c520dc2a3aed2eaf1a3b55967fa7274a3427cbe2647b2b179060800160405180910390a2509695505050505050565b803573ffffffffffffffffffffffffffffffffffffffff8116811461068557600080fd5b919050565b60008060006060848603121561069f57600080fd5b6106a884610661565b92506106b660208501610661565b9150604084013590509250925092565b7f4e487b7100000000000000000000000000000000000000000000000000000000600052601160045260246000fd5b600082821015610707576107076106c6565b500390565b6000821982111561071f5761071f6106c6565b500190565b6000817fffffffffffffffffffffffffffffffffffffffffffffffffffffffffffffffff048311821515161561075c5761075c6106c6565b500290565b600082610797577f4e487b7100000000000000000000000000000000000000000000000000000000600052601260045260246000fd5b50049056fea26469706673582212209b5d1ad22ab5619c89ba29478264ee235c41f48fcb3a788611d15a40aca7f47264736f6c634300080d0033",
  "devdoc": {
    "kind": "dev",
    "methods": {},
    "version": 1
  },
  "userdoc": {
    "kind": "user",
    "methods": {},
    "version": 1
  },
  "storageLayout": {
    "storage": [],
    "types": null
  }
}