{
  "address": "0xC269EB375f8C48251AF9aca78963413AE7aBED1b",
  "abi": [
    {
      "inputs": [
        {
          "internalType": "address",
          "name": "_pool",
          "type": "address"
        }
      ],
      "stateMutability": "nonpayable",
      "type": "constructor"
    },
    {
      "anonymous": false,
      "inputs": [
        {
          "indexed": false,
          "internalType": "uint256",
          "name": "globalEarnedWei",
          "type": "uint256"
        },
        {
          "indexed": false,
          "internalType": "uint256",
          "name": "accruedWeiPerShare",
          "type": "uint256"
        },
        {
          "indexed": false,
          "internalType": "uint256",
          "name": "balance",
          "type": "uint256"
        }
      ],
      "name": "AccruedRoyalties",
      "type": "event"
    },
    {
      "anonymous": false,
      "inputs": [
        {
          "indexed": true,
          "internalType": "address",
          "name": "user",
          "type": "address"
        },
        {
          "indexed": false,
          "internalType": "uint256",
          "name": "earnt",
          "type": "uint256"
        },
        {
          "indexed": false,
          "internalType": "uint256",
          "name": "debt",
          "type": "uint256"
        },
        {
          "indexed": false,
          "internalType": "uint256",
          "name": "withdrawableWei",
          "type": "uint256"
        },
        {
          "indexed": false,
          "internalType": "uint256",
          "name": "newDebtWei",
          "type": "uint256"
        }
      ],
      "name": "LockerUpdated",
      "type": "event"
    },
    {
      "anonymous": false,
      "inputs": [
        {
          "indexed": true,
          "internalType": "address",
          "name": "sender",
          "type": "address"
        },
        {
          "indexed": false,
          "internalType": "uint256",
          "name": "amount",
          "type": "uint256"
        },
        {
          "indexed": false,
          "internalType": "uint256",
          "name": "balance",
          "type": "uint256"
        }
      ],
      "name": "WithdrawnRoyalties",
      "type": "event"
    },
    {
      "inputs": [],
      "name": "accrueRoyalties",
      "outputs": [
        {
          "internalType": "uint256",
          "name": "accruedRoyalties",
          "type": "uint256"
        }
      ],
      "stateMutability": "nonpayable",
      "type": "function"
    },
    {
      "inputs": [
        {
          "internalType": "address",
          "name": "from",
          "type": "address"
        },
        {
          "internalType": "address",
          "name": "to",
          "type": "address"
        },
        {
          "internalType": "uint256",
          "name": "",
          "type": "uint256"
        }
      ],
      "name": "beforeTokenTransfer",
      "outputs": [],
      "stateMutability": "nonpayable",
      "type": "function"
    },
    {
      "inputs": [],
      "name": "getCurrentFeeGlobals",
      "outputs": [
        {
          "internalType": "uint256",
          "name": "globalEarnedWei",
          "type": "uint256"
        },
        {
          "internalType": "uint256",
          "name": "lastWeiCheckpoint",
          "type": "uint256"
        },
        {
          "internalType": "uint256",
          "name": "accruedWeiPerShare",
          "type": "uint256"
        }
      ],
      "stateMutability": "view",
      "type": "function"
    },
    {
      "inputs": [],
      "name": "pool",
      "outputs": [
        {
          "internalType": "address",
          "name": "",
          "type": "address"
        }
      ],
      "stateMutability": "view",
      "type": "function"
    },
    {
      "inputs": [],
      "name": "withdrawRoyalties",
      "outputs": [
        {
          "internalType": "uint256",
          "name": "",
          "type": "uint256"
        }
      ],
      "stateMutability": "nonpayable",
      "type": "function"
    }
  ],
  "transactionHash": "0x8530e6a81b3aa7753c18c1b11005afb0a20cd5ef3a655759f1c74fa18e02c86e",
  "args": [
    "0xE91DDb29e076923B66fE65b0FD29f58b0A364dbC"
  ],
  "numDeployments": 1,
  "solcInputHash": "e787e50d6c41b80f1e380d6403a6e1ff",
  "bytecode": "0x60a060405234801561001057600080fd5b506040516107a73803806107a783398101604081905261002f91610044565b60601b6001600160601b031916608052610072565b600060208284031215610055578081fd5b81516001600160a01b038116811461006b578182fd5b9392505050565b60805160601c61071161009660003960008181606101526102ff01526107116000f3fe608060405234801561001057600080fd5b50600436106100575760003560e01c806316f0115b1461005c57806321c34fcb146100a05780632fb3c60f146100b65780637cbab1c7146100be578063b712aed5146100d3575b600080fd5b6100837f000000000000000000000000000000000000000000000000000000000000000081565b6040516001600160a01b0390911681526020015b60405180910390f35b6100a8610142565b604051908152602001610097565b6100a86102a5565b6100d16100cc36600461061c565b610409565b005b6000805160206106bc833981519152547f8ebaf164eae4346eb4be15675aaa37ea2ac794fde2938369c6be4c832f5b3fa9547f8ebaf164eae4346eb4be15675aaa37ea2ac794fde2938369c6be4c832f5b3faa5460408051938452602084019290925290820152606001610097565b600061014c6102a5565b5060006101583361049a565b90506000811161019b5760405162461bcd60e51b81526020600482015260096024820152681393d7d49155d0549160ba1b60448201526064015b60405180910390fd5b3360009081527f8ebaf164eae4346eb4be15675aaa37ea2ac794fde2938369c6be4c832f5b3fab602052604081206001018190557f8ebaf164eae4346eb4be15675aaa37ea2ac794fde2938369c6be4c832f5b3fa980546000805160206106bc8339815191529284929161021090849061068e565b9091555050604051600090339084908381818185875af1925050503d8060008114610257576040519150601f19603f3d011682016040523d82523d6000602084013e61025c565b606091505b505090508061029d5760405162461bcd60e51b815260206004820152600d60248201526c11551217d4d1539117d1905253609a1b6044820152606401610192565b509092915050565b7f57b5988df17516e060374e0264a58e0f7554bffd3e2b9548bacecce82610e2755460009080156104055760006000805160206106bc8339815191526001810154604051631916558760e01b8152306004820152919250907f00000000000000000000000000000000000000000000000000000000000000006001600160a01b031690631916558790602401600060405180830381600087803b15801561034b57600080fd5b505af192505050801561035c575060015b504781811115610401578254828203955060009061037b908790610657565b9050600061039a610394670de0b6b3a76400008961066f565b87900490565b85600201546103a99190610657565b828655600286018190556001860184905560408051848152602081018390529081018590529091507f0518620b80e48f588db70691e289ba58df5ef8e53da2063517cbe556b23813e29060600160405180910390a150505b5050505b5090565b3330146104585760405162461bcd60e51b815260206004820152601e60248201527f4f6e6c7920746865206469616d6f6e642063616e2063616c6c207468697300006044820152606401610192565b6104606102a5565b506001600160a01b0383161561047b576104798361049a565b505b6001600160a01b03821615610495576104938261049a565b505b505050565b6001600160a01b03811660009081527f57b5988df17516e060374e0264a58e0f7554bffd3e2b9548bacecce82610e27760209081526040808320547f8ebaf164eae4346eb4be15675aaa37ea2ac794fde2938369c6be4c832f5b3faa547f8ebaf164eae4346eb4be15675aaa37ea2ac794fde2938369c6be4c832f5b3fab9093529083205490916000805160206106bc833981519152918461055885610540848661068e565b61054a919061066f565b670de0b6b3a7640000900490565b6001600160a01b038816600090815260038601602052604081206001015491925090610585908390610657565b6001600160a01b0389166000818152600388016020908152604091829020888155600101849055815186815290810187905290810183905260608101879052919250907f1d8610cf7fa6cd14c520dc2a3aed2eaf1a3b55967fa7274a3427cbe2647b2b179060800160405180910390a2979650505050505050565b80356001600160a01b038116811461061757600080fd5b919050565b600080600060608486031215610630578283fd5b61063984610600565b925061064760208501610600565b9150604084013590509250925092565b6000821982111561066a5761066a6106a5565b500190565b6000816000190483118215151615610689576106896106a5565b500290565b6000828210156106a0576106a06106a5565b500390565b634e487b7160e01b600052601160045260246000fdfe8ebaf164eae4346eb4be15675aaa37ea2ac794fde2938369c6be4c832f5b3fa8a264697066735822122093b14433e4217dfc91a794c3dff09f3b853a8fac4f6d7632c6b02198e69041d164736f6c63430008040033",
  "devdoc": {
    "kind": "dev",
    "methods": {},
    "version": 1
  },
  "userdoc": {
    "kind": "user",
    "methods": {},
    "version": 1
  },
  "storageLayout": {
    "storage": [],
    "types": null
  }
}