{
  "address": "0xEcfE59B20200Dd13dCd3199970eD6Dc86B0206bf",
  "abi": [
    {
      "anonymous": false,
      "inputs": [
        {
          "indexed": true,
          "internalType": "address",
          "name": "addr",
          "type": "address"
        },
        {
          "indexed": false,
          "internalType": "bool",
          "name": "isMinter",
          "type": "bool"
        }
      ],
      "name": "MinterSet",
      "type": "event"
    },
    {
      "inputs": [],
      "name": "getMintRoleAdmin",
      "outputs": [
        {
          "internalType": "address",
          "name": "",
          "type": "address"
        }
      ],
      "stateMutability": "view",
      "type": "function"
    },
    {
      "inputs": [
        {
          "internalType": "address",
          "name": "addr",
          "type": "address"
        }
      ],
      "name": "getMinter",
      "outputs": [
        {
          "internalType": "bool",
          "name": "",
          "type": "bool"
        }
      ],
      "stateMutability": "view",
      "type": "function"
    },
    {
      "inputs": [
        {
          "internalType": "address",
          "name": "addr",
          "type": "address"
        },
        {
          "internalType": "bool",
          "name": "isMinter",
          "type": "bool"
        }
      ],
      "name": "setMinter",
      "outputs": [],
      "stateMutability": "nonpayable",
      "type": "function"
    }
  ],
  "transactionHash": "0x246da8ffebd457089c40cdf4659007124ed4e70f271e4c8bdd31d4f3c710dad9",
  "args": [],
  "numDeployments": 1,
  "solcInputHash": "e787e50d6c41b80f1e380d6403a6e1ff",
  "bytecode": "0x608060405234801561001057600080fd5b506102d6806100206000396000f3fe608060405234801561001057600080fd5b50600436106100415760003560e01c8063739d966214610046578063bc73b64114610085578063cf456ae7146100e0575b600080fd5b7fc8fcad8db84d3cc18b4c41d551ea0ee66dd599cde068d998e57d5e09332c1320546040516001600160a01b0390911681526020015b60405180910390f35b6100d0610093366004610245565b6001600160a01b031660009081527f4973bd83c52c20d8da0afd0601fa08313c8e1c8be97b9487d8f935959fa7c33b602052604090205460ff1690565b604051901515815260200161007c565b6100f36100ee366004610266565b6100f5565b005b7fc8fcad8db84d3cc18b4c41d551ea0ee66dd599cde068d998e57d5e09332c1320547fc8fcad8db84d3cc18b4c41d551ea0ee66dd599cde068d998e57d5e09332c131c906001600160a01b031633146101a95760405162461bcd60e51b815260206004820152602c60248201527f4f6e6c79206f776e657220697320616c6c6f77656420746f20706572666f726d60448201526b103a3434b99030b1ba34b7b760a11b606482015260840160405180910390fd5b6001600160a01b03831660008181527f4973bd83c52c20d8da0afd0601fa08313c8e1c8be97b9487d8f935959fa7c33b6020908152604091829020805460ff1916861515908117909155825190815291517f583b0aa0e528532caf4b907c11d7a8158a122fe2a6fb80cd9b09776ebea8d92d9281900390910190a2505050565b80356001600160a01b038116811461024057600080fd5b919050565b600060208284031215610256578081fd5b61025f82610229565b9392505050565b60008060408385031215610278578081fd5b61028183610229565b915060208301358015158114610295578182fd5b80915050925092905056fea26469706673582212207324afa4d5ed3eb2e29885ee1b328eb988df1c102b67a31586c949575ec6c37164736f6c63430008040033",
  "devdoc": {
    "kind": "dev",
    "methods": {},
    "version": 1
  },
  "userdoc": {
    "kind": "user",
    "methods": {},
    "version": 1
  },
  "storageLayout": {
    "storage": [],
    "types": null
  }
}