{
  "address": "0xF55ec8c4ab7B9CEE488911CfbC5C80E7F3105d5E",
  "abi": [
    {
      "anonymous": false,
      "inputs": [
        {
          "indexed": true,
          "internalType": "address",
          "name": "addr",
          "type": "address"
        },
        {
          "indexed": false,
          "internalType": "bool",
          "name": "isMinter",
          "type": "bool"
        }
      ],
      "name": "MinterSet",
      "type": "event"
    },
    {
      "inputs": [],
      "name": "getMintRoleAdmin",
      "outputs": [
        {
          "internalType": "address",
          "name": "",
          "type": "address"
        }
      ],
      "stateMutability": "view",
      "type": "function"
    },
    {
      "inputs": [
        {
          "internalType": "address",
          "name": "addr",
          "type": "address"
        }
      ],
      "name": "getMinter",
      "outputs": [
        {
          "internalType": "bool",
          "name": "",
          "type": "bool"
        }
      ],
      "stateMutability": "view",
      "type": "function"
    },
    {
      "inputs": [
        {
          "internalType": "address",
          "name": "addr",
          "type": "address"
        },
        {
          "internalType": "bool",
          "name": "isMinter",
          "type": "bool"
        }
      ],
      "name": "setMinter",
      "outputs": [],
      "stateMutability": "nonpayable",
      "type": "function"
    }
  ],
  "transactionHash": "0x87202766e61dfe2c75e6e5c30d7d2f341e1bee312cd5cb2d8f7ee37659f490dc",
  "args": [],
  "numDeployments": 1,
  "solcInputHash": "4ad5d465a464d7539ad6ec7eb5908f3a",
  "bytecode": "0x608060405234801561001057600080fd5b50610363806100206000396000f3fe608060405234801561001057600080fd5b50600436106100415760003560e01c8063739d966214610046578063bc73b64114610092578063cf456ae7146100fa575b600080fd5b7fc8fcad8db84d3cc18b4c41d551ea0ee66dd599cde068d998e57d5e09332c13205460405173ffffffffffffffffffffffffffffffffffffffff90911681526020015b60405180910390f35b6100ea6100a03660046102cf565b73ffffffffffffffffffffffffffffffffffffffff1660009081527f4973bd83c52c20d8da0afd0601fa08313c8e1c8be97b9487d8f935959fa7c33b602052604090205460ff1690565b6040519015158152602001610089565b61010d6101083660046102f1565b61010f565b005b7fc8fcad8db84d3cc18b4c41d551ea0ee66dd599cde068d998e57d5e09332c1320547fc8fcad8db84d3cc18b4c41d551ea0ee66dd599cde068d998e57d5e09332c131c9073ffffffffffffffffffffffffffffffffffffffff1633146101fb576040517f08c379a000000000000000000000000000000000000000000000000000000000815260206004820152602c60248201527f4f6e6c79206f776e657220697320616c6c6f77656420746f20706572666f726d60448201527f207468697320616374696f6e0000000000000000000000000000000000000000606482015260840160405180910390fd5b73ffffffffffffffffffffffffffffffffffffffff831660008181527f4973bd83c52c20d8da0afd0601fa08313c8e1c8be97b9487d8f935959fa7c33b602090815260409182902080547fffffffffffffffffffffffffffffffffffffffffffffffffffffffffffffff0016861515908117909155825190815291517f583b0aa0e528532caf4b907c11d7a8158a122fe2a6fb80cd9b09776ebea8d92d9281900390910190a2505050565b803573ffffffffffffffffffffffffffffffffffffffff811681146102ca57600080fd5b919050565b6000602082840312156102e157600080fd5b6102ea826102a6565b9392505050565b6000806040838503121561030457600080fd5b61030d836102a6565b91506020830135801515811461032257600080fd5b80915050925092905056fea264697066735822122030e25a0dde83f21555963c2373458601956cd518ccc0542b85dbe3361f26c1a164736f6c634300080d0033",
  "devdoc": {
    "kind": "dev",
    "methods": {},
    "version": 1
  },
  "userdoc": {
    "kind": "user",
    "methods": {},
    "version": 1
  },
  "storageLayout": {
    "storage": [],
    "types": null
  }
}