{
  "address": "0x871d9Ca704379F4b72420B67E7914ce3fe750163",
  "abi": [
    {
      "inputs": [
        {
          "internalType": "address",
          "name": "_mintable",
          "type": "address"
        },
        {
          "internalType": "address",
          "name": "_oracle",
          "type": "address"
        },
        {
          "internalType": "uint256",
          "name": "_price",
          "type": "uint256"
        }
      ],
      "stateMutability": "nonpayable",
      "type": "constructor"
    },
    {
      "anonymous": false,
      "inputs": [
        {
          "indexed": true,
          "internalType": "address",
          "name": "previousOwner",
          "type": "address"
        },
        {
          "indexed": true,
          "internalType": "address",
          "name": "newOwner",
          "type": "address"
        }
      ],
      "name": "OwnershipTransferred",
      "type": "event"
    },
    {
      "inputs": [],
      "name": "PRICE",
      "outputs": [
        {
          "internalType": "uint256",
          "name": "",
          "type": "uint256"
        }
      ],
      "stateMutability": "view",
      "type": "function"
    },
    {
      "inputs": [
        {
          "internalType": "bytes32[]",
          "name": "",
          "type": "bytes32[]"
        },
        {
          "internalType": "bytes32",
          "name": "",
          "type": "bytes32"
        },
        {
          "internalType": "uint256",
          "name": "amount",
          "type": "uint256"
        }
      ],
      "name": "batchMint",
      "outputs": [],
      "stateMutability": "payable",
      "type": "function"
    },
    {
      "inputs": [
        {
          "internalType": "bytes32[]",
          "name": "",
          "type": "bytes32[]"
        },
        {
          "internalType": "bytes32",
          "name": "",
          "type": "bytes32"
        }
      ],
      "name": "mint",
      "outputs": [],
      "stateMutability": "payable",
      "type": "function"
    },
    {
      "inputs": [],
      "name": "mintable",
      "outputs": [
        {
          "internalType": "address",
          "name": "",
          "type": "address"
        }
      ],
      "stateMutability": "view",
      "type": "function"
    },
    {
      "inputs": [],
      "name": "oracle",
      "outputs": [
        {
          "internalType": "address",
          "name": "",
          "type": "address"
        }
      ],
      "stateMutability": "view",
      "type": "function"
    },
    {
      "inputs": [],
      "name": "owner",
      "outputs": [
        {
          "internalType": "address",
          "name": "",
          "type": "address"
        }
      ],
      "stateMutability": "view",
      "type": "function"
    },
    {
      "inputs": [],
      "name": "renounceOwnership",
      "outputs": [],
      "stateMutability": "nonpayable",
      "type": "function"
    },
    {
      "inputs": [
        {
          "internalType": "address",
          "name": "newOwner",
          "type": "address"
        }
      ],
      "name": "transferOwnership",
      "outputs": [],
      "stateMutability": "nonpayable",
      "type": "function"
    },
    {
      "inputs": [
        {
          "internalType": "address",
          "name": "",
          "type": "address"
        }
      ],
      "name": "verified",
      "outputs": [
        {
          "internalType": "bool",
          "name": "",
          "type": "bool"
        }
      ],
      "stateMutability": "view",
      "type": "function"
    },
    {
      "inputs": [],
      "name": "withdraw",
      "outputs": [],
      "stateMutability": "nonpayable",
      "type": "function"
    }
  ],
  "transactionHash": "0x5d6a4f52ed776eee8d3909de350fbdd4a8d5dce4204aeff24146f038c09af299",
  "args": [
    "0x0Df02dC226f06c9b49e36Cfc32E1005aDc30533B",
    "0x8A753747A1Fa494EC906cE90E9f37563A8AF630e",
    10
  ],
  "numDeployments": 1,
  "solcInputHash": "4ad5d465a464d7539ad6ec7eb5908f3a",
  "bytecode": "0x6101006040523480156200001257600080fd5b5060405162001334380380620013348339810160408190526200003591620001b0565b828282620000433362000143565b6001600160a01b0380841660c052821660e08190526040805163313ce56760e01b8152905163313ce567916004808201926020929091908290030181865afa15801562000094573d6000803e3d6000fd5b505050506040513d601f19601f82011682018060405250810190620000ba9190620001f1565b60ff16608081905260121015620001175760405162461bcd60e51b815260206004820152601560248201527f4c494e4b5f494e56414c49445f444543494d414c530000000000000000000000604482015260640160405180910390fd5b6080516200012790600a62000332565b62000133908262000343565b60a0525062000365945050505050565b600080546001600160a01b038381166001600160a01b0319831681178455604051919092169283917f8be0079c531659141344cd1fd0a4f28419497f9722a3daafe3b4186f6b6457e09190a35050565b80516001600160a01b0381168114620001ab57600080fd5b919050565b600080600060608486031215620001c657600080fd5b620001d18462000193565b9250620001e16020850162000193565b9150604084015190509250925092565b6000602082840312156200020457600080fd5b815160ff811681146200021657600080fd5b9392505050565b634e487b7160e01b600052601160045260246000fd5b600181815b80851115620002745781600019048211156200025857620002586200021d565b808516156200026657918102915b93841c939080029062000238565b509250929050565b6000826200028d575060016200032c565b816200029c575060006200032c565b8160018114620002b55760028114620002c057620002e0565b60019150506200032c565b60ff841115620002d457620002d46200021d565b50506001821b6200032c565b5060208310610133831016604e8410600b841016171562000305575081810a6200032c565b62000311838362000233565b80600019048211156200032857620003286200021d565b0290505b92915050565b60006200021660ff8416836200027c565b60008160001904831182151516156200036057620003606200021d565b500290565b60805160a05160c05160e051610f60620003d4600039600081816101a501528181610457015261085801526000818161013701528181610611015281816106ed01528181610a120152610b050152600081816101ec015281816105680152610969015260005050610f606000f3fe6080604052600436106100b15760003560e01c80637dc0d1d0116100695780638d859f3e1161004e5780638d859f3e146101da5780638da5cb5b1461021c578063f2fde38b1461024757600080fd5b80637dc0d1d01461019357806382f603ad146101c757600080fd5b80633ccfd60b1161009a5780633ccfd60b146101105780634bf365df14610125578063715018a61461017e57600080fd5b80630c9536f2146100b65780630db065f4146100cb575b600080fd5b6100c96100c4366004610bd8565b610267565b005b3480156100d757600080fd5b506100fb6100e6366004610c24565b60016020526000908152604090205460ff1681565b60405190151581526020015b60405180910390f35b34801561011c57600080fd5b506100c9610275565b34801561013157600080fd5b506101597f000000000000000000000000000000000000000000000000000000000000000081565b60405173ffffffffffffffffffffffffffffffffffffffff9091168152602001610107565b34801561018a57600080fd5b506100c9610281565b34801561019f57600080fd5b506101597f000000000000000000000000000000000000000000000000000000000000000081565b6100c96101d5366004610c61565b610311565b3480156101e657600080fd5b5061020e7f000000000000000000000000000000000000000000000000000000000000000081565b604051908152602001610107565b34801561022857600080fd5b5060005473ffffffffffffffffffffffffffffffffffffffff16610159565b34801561025357600080fd5b506100c9610262366004610c24565b610321565b61027033610451565b505050565b61027f3347610769565b565b60005473ffffffffffffffffffffffffffffffffffffffff163314610307576040517f08c379a000000000000000000000000000000000000000000000000000000000815260206004820181905260248201527f4f776e61626c653a2063616c6c6572206973206e6f7420746865206f776e657260448201526064015b60405180910390fd5b61027f60006107de565b61031b3382610853565b50505050565b60005473ffffffffffffffffffffffffffffffffffffffff1633146103a2576040517f08c379a000000000000000000000000000000000000000000000000000000000815260206004820181905260248201527f4f776e61626c653a2063616c6c6572206973206e6f7420746865206f776e657260448201526064016102fe565b73ffffffffffffffffffffffffffffffffffffffff8116610445576040517f08c379a000000000000000000000000000000000000000000000000000000000815260206004820152602660248201527f4f776e61626c653a206e6577206f776e657220697320746865207a65726f206160448201527f646472657373000000000000000000000000000000000000000000000000000060648201526084016102fe565b61044e816107de565b50565b600160007f000000000000000000000000000000000000000000000000000000000000000073ffffffffffffffffffffffffffffffffffffffff1663feaf968c6040518163ffffffff1660e01b815260040160a060405180830381865afa1580156104c0573d6000803e3d6000fd5b505050506040513d601f19601f820116820180604052508101906104e49190610cd1565b50505091505060008113610554576040517f08c379a000000000000000000000000000000000000000000000000000000000815260206004820152601360248201527f4c494e4b5f50524943455f4e454741544956450000000000000000000000000060448201526064016102fe565b6000816105636012600a610e72565b61058d7f000000000000000000000000000000000000000000000000000000000000000086610e81565b6105979190610e81565b6105a19190610ebe565b90503481111561060d576040517f08c379a000000000000000000000000000000000000000000000000000000000815260206004820152601760248201527f4d494e545f494e53554646494349454e545f56414c554500000000000000000060448201526064016102fe565b60007f000000000000000000000000000000000000000000000000000000000000000073ffffffffffffffffffffffffffffffffffffffff166318160ddd6040518163ffffffff1660e01b8152600401602060405180830381865afa15801561067a573d6000803e3d6000fd5b505050506040513d601f19601f8201168201806040525081019061069e9190610ef9565b6040517f40c10f1900000000000000000000000000000000000000000000000000000000815273ffffffffffffffffffffffffffffffffffffffff8781166004830152602482018390529192507f0000000000000000000000000000000000000000000000000000000000000000909116906340c10f1990604401600060405180830381600087803b15801561073357600080fd5b505af1158015610747573d6000803e3d6000fd5b50505034838103925083149050610762576107623382610769565b5050505050565b600080600080600085875af1905080610270576040517f08c379a000000000000000000000000000000000000000000000000000000000815260206004820152601360248201527f4554485f5452414e534645525f4641494c45440000000000000000000000000060448201526064016102fe565b6000805473ffffffffffffffffffffffffffffffffffffffff8381167fffffffffffffffffffffffff0000000000000000000000000000000000000000831681178455604051919092169283917f8be0079c531659141344cd1fd0a4f28419497f9722a3daafe3b4186f6b6457e09190a35050565b8060007f000000000000000000000000000000000000000000000000000000000000000073ffffffffffffffffffffffffffffffffffffffff1663feaf968c6040518163ffffffff1660e01b815260040160a060405180830381865afa1580156108c1573d6000803e3d6000fd5b505050506040513d601f19601f820116820180604052508101906108e59190610cd1565b50505091505060008113610955576040517f08c379a000000000000000000000000000000000000000000000000000000000815260206004820152601360248201527f4c494e4b5f50524943455f4e454741544956450000000000000000000000000060448201526064016102fe565b6000816109646012600a610e72565b61098e7f000000000000000000000000000000000000000000000000000000000000000086610e81565b6109989190610e81565b6109a29190610ebe565b905034811115610a0e576040517f08c379a000000000000000000000000000000000000000000000000000000000815260206004820152601760248201527f4d494e545f494e53554646494349454e545f56414c554500000000000000000060448201526064016102fe565b60007f000000000000000000000000000000000000000000000000000000000000000073ffffffffffffffffffffffffffffffffffffffff166318160ddd6040518163ffffffff1660e01b8152600401602060405180830381865afa158015610a7b573d6000803e3d6000fd5b505050506040513d601f19601f82011682018060405250810190610a9f9190610ef9565b90506000610aad8683610f12565b9050815b81811015610b6c576040517f40c10f1900000000000000000000000000000000000000000000000000000000815273ffffffffffffffffffffffffffffffffffffffff8981166004830152602482018390527f000000000000000000000000000000000000000000000000000000000000000016906340c10f1990604401600060405180830381600087803b158015610b4957600080fd5b505af1158015610b5d573d6000803e3d6000fd5b50505050806001019050610ab1565b50505034818103908214610b8457610b843382610769565b505050505050565b60008083601f840112610b9e57600080fd5b50813567ffffffffffffffff811115610bb657600080fd5b6020830191508360208260051b8501011115610bd157600080fd5b9250929050565b600080600060408486031215610bed57600080fd5b833567ffffffffffffffff811115610c0457600080fd5b610c1086828701610b8c565b909790965060209590950135949350505050565b600060208284031215610c3657600080fd5b813573ffffffffffffffffffffffffffffffffffffffff81168114610c5a57600080fd5b9392505050565b60008060008060608587031215610c7757600080fd5b843567ffffffffffffffff811115610c8e57600080fd5b610c9a87828801610b8c565b90989097506020870135966040013595509350505050565b805169ffffffffffffffffffff81168114610ccc57600080fd5b919050565b600080600080600060a08688031215610ce957600080fd5b610cf286610cb2565b9450602086015193506040860151925060608601519150610d1560808701610cb2565b90509295509295909350565b7f4e487b7100000000000000000000000000000000000000000000000000000000600052601160045260246000fd5b600181815b80851115610da957817fffffffffffffffffffffffffffffffffffffffffffffffffffffffffffffffff04821115610d8f57610d8f610d21565b80851615610d9c57918102915b93841c9390800290610d55565b509250929050565b600082610dc057506001610e6c565b81610dcd57506000610e6c565b8160018114610de35760028114610ded57610e09565b6001915050610e6c565b60ff841115610dfe57610dfe610d21565b50506001821b610e6c565b5060208310610133831016604e8410600b8410161715610e2c575081810a610e6c565b610e368383610d50565b807fffffffffffffffffffffffffffffffffffffffffffffffffffffffffffffffff04821115610e6857610e68610d21565b0290505b92915050565b6000610c5a60ff841683610db1565b6000817fffffffffffffffffffffffffffffffffffffffffffffffffffffffffffffffff0483118215151615610eb957610eb9610d21565b500290565b600082610ef4577f4e487b7100000000000000000000000000000000000000000000000000000000600052601260045260246000fd5b500490565b600060208284031215610f0b57600080fd5b5051919050565b60008219821115610f2557610f25610d21565b50019056fea2646970667358221220d695dd1b6e3bc89a9579b51f124fa45d1880066004de5d1cc4fcc75664055a3164736f6c634300080d0033",
  "devdoc": {
    "kind": "dev",
    "methods": {
      "owner()": {
        "details": "Returns the address of the current owner."
      },
      "renounceOwnership()": {
        "details": "Leaves the contract without owner. It will not be possible to call `onlyOwner` functions anymore. Can only be called by the current owner. NOTE: Renouncing ownership will leave the contract without an owner, thereby removing any functionality that is only available to the owner."
      },
      "transferOwnership(address)": {
        "details": "Transfers ownership of the contract to a new account (`newOwner`). Can only be called by the current owner."
      }
    },
    "version": 1
  },
  "userdoc": {
    "kind": "user",
    "methods": {},
    "version": 1
  },
  "storageLayout": {
    "storage": [
      {
        "astId": 1944,
        "contract": "contracts/minters/OpenMinter.sol:OpenMinter",
        "label": "_owner",
        "offset": 0,
        "slot": "0",
        "type": "t_address"
      },
      {
        "astId": 5516,
        "contract": "contracts/minters/OpenMinter.sol:OpenMinter",
        "label": "verified",
        "offset": 0,
        "slot": "1",
        "type": "t_mapping(t_address,t_bool)"
      }
    ],
    "types": {
      "t_address": {
        "encoding": "inplace",
        "label": "address",
        "numberOfBytes": "20"
      },
      "t_bool": {
        "encoding": "inplace",
        "label": "bool",
        "numberOfBytes": "1"
      },
      "t_mapping(t_address,t_bool)": {
        "encoding": "mapping",
        "key": "t_address",
        "label": "mapping(address => bool)",
        "numberOfBytes": "32",
        "value": "t_bool"
      }
    }
  }
}