{
  "address": "0x41F364D5f95458b48C665a14cbd56d3afDC2d388",
  "abi": [
    {
      "inputs": [
        {
          "internalType": "address",
          "name": "_mintable",
          "type": "address"
        },
        {
          "internalType": "address",
          "name": "_oracle",
          "type": "address"
        },
        {
          "internalType": "uint256",
          "name": "_price",
          "type": "uint256"
        }
      ],
      "stateMutability": "nonpayable",
      "type": "constructor"
    },
    {
      "anonymous": false,
      "inputs": [
        {
          "indexed": true,
          "internalType": "address",
          "name": "previousOwner",
          "type": "address"
        },
        {
          "indexed": true,
          "internalType": "address",
          "name": "newOwner",
          "type": "address"
        }
      ],
      "name": "OwnershipTransferred",
      "type": "event"
    },
    {
      "inputs": [],
      "name": "PRICE",
      "outputs": [
        {
          "internalType": "uint256",
          "name": "",
          "type": "uint256"
        }
      ],
      "stateMutability": "view",
      "type": "function"
    },
    {
      "inputs": [
        {
          "internalType": "bytes32[]",
          "name": "",
          "type": "bytes32[]"
        },
        {
          "internalType": "bytes32",
          "name": "",
          "type": "bytes32"
        },
        {
          "internalType": "uint256",
          "name": "amount",
          "type": "uint256"
        }
      ],
      "name": "batchMint",
      "outputs": [],
      "stateMutability": "payable",
      "type": "function"
    },
    {
      "inputs": [
        {
          "internalType": "bytes32[]",
          "name": "",
          "type": "bytes32[]"
        },
        {
          "internalType": "bytes32",
          "name": "",
          "type": "bytes32"
        }
      ],
      "name": "mint",
      "outputs": [],
      "stateMutability": "payable",
      "type": "function"
    },
    {
      "inputs": [],
      "name": "mintable",
      "outputs": [
        {
          "internalType": "address",
          "name": "",
          "type": "address"
        }
      ],
      "stateMutability": "view",
      "type": "function"
    },
    {
      "inputs": [],
      "name": "oracle",
      "outputs": [
        {
          "internalType": "address",
          "name": "",
          "type": "address"
        }
      ],
      "stateMutability": "view",
      "type": "function"
    },
    {
      "inputs": [],
      "name": "owner",
      "outputs": [
        {
          "internalType": "address",
          "name": "",
          "type": "address"
        }
      ],
      "stateMutability": "view",
      "type": "function"
    },
    {
      "inputs": [],
      "name": "renounceOwnership",
      "outputs": [],
      "stateMutability": "nonpayable",
      "type": "function"
    },
    {
      "inputs": [
        {
          "internalType": "address",
          "name": "newOwner",
          "type": "address"
        }
      ],
      "name": "transferOwnership",
      "outputs": [],
      "stateMutability": "nonpayable",
      "type": "function"
    },
    {
      "inputs": [
        {
          "internalType": "address",
          "name": "",
          "type": "address"
        }
      ],
      "name": "verified",
      "outputs": [
        {
          "internalType": "bool",
          "name": "",
          "type": "bool"
        }
      ],
      "stateMutability": "view",
      "type": "function"
    },
    {
      "inputs": [],
      "name": "withdraw",
      "outputs": [],
      "stateMutability": "nonpayable",
      "type": "function"
    }
  ],
  "transactionHash": "0x8677d0fbc174e79cbf0affe7a11d69fc9cca524b49847593322758d49fb03d91",
  "args": [
    "0xbE69601fd9f47bc41B8f9B9493B8084Ce7E100FD",
    "0x8A753747A1Fa494EC906cE90E9f37563A8AF630e",
    10
  ],
  "numDeployments": 1,
  "solcInputHash": "e787e50d6c41b80f1e380d6403a6e1ff",
  "bytecode": "0x60e060405234801561001057600080fd5b50604051610e8c380380610e8c83398101604081905261002f916100de565b82828261003b33610072565b6001600160601b0319606084811b821660a05283901b1660c052610063816305f5e100610119565b60805250610144945050505050565b600080546001600160a01b038381166001600160a01b0319831681178455604051919092169283917f8be0079c531659141344cd1fd0a4f28419497f9722a3daafe3b4186f6b6457e09190a35050565b80516001600160a01b03811681146100d957600080fd5b919050565b6000806000606084860312156100f2578283fd5b6100fb846100c2565b9250610109602085016100c2565b9150604084015190509250925092565b600081600019048311821515161561013f57634e487b7160e01b81526011600452602481fd5b500290565b60805160a05160601c60c05160601c610cdb6101b1600039600081816101780152818161039101526106e301526000818161011701528181610509015281816105c10152818161085b015261092a0152600081816101bf0152818161048001526107d20152610cdb6000f3fe6080604052600436106100915760003560e01c80637dc0d1d0116100595780637dc0d1d01461016657806382f603ad1461019a5780638d859f3e146101ad5780638da5cb5b146101ef578063f2fde38b1461020d57600080fd5b80630c9536f2146100965780630db065f4146100ab5780633ccfd60b146100f05780634bf365df14610105578063715018a614610151575b600080fd5b6100a96100a4366004610a48565b61022d565b005b3480156100b757600080fd5b506100db6100c6366004610a1a565b60016020526000908152604090205460ff1681565b60405190151581526020015b60405180910390f35b3480156100fc57600080fd5b506100a961023b565b34801561011157600080fd5b506101397f000000000000000000000000000000000000000000000000000000000000000081565b6040516001600160a01b0390911681526020016100e7565b34801561015d57600080fd5b506100a9610247565b34801561017257600080fd5b506101397f000000000000000000000000000000000000000000000000000000000000000081565b6100a96101a8366004610a92565b6102b0565b3480156101b957600080fd5b506101e17f000000000000000000000000000000000000000000000000000000000000000081565b6040519081526020016100e7565b3480156101fb57600080fd5b506000546001600160a01b0316610139565b34801561021957600080fd5b506100a9610228366004610a1a565b6102c0565b6102363361038b565b505050565b610245334761063d565b565b6000546001600160a01b031633146102a65760405162461bcd60e51b815260206004820181905260248201527f4f776e61626c653a2063616c6c6572206973206e6f7420746865206f776e657260448201526064015b60405180910390fd5b610245600061068e565b6102ba33826106de565b50505050565b6000546001600160a01b0316331461031a5760405162461bcd60e51b815260206004820181905260248201527f4f776e61626c653a2063616c6c6572206973206e6f7420746865206f776e6572604482015260640161029d565b6001600160a01b03811661037f5760405162461bcd60e51b815260206004820152602660248201527f4f776e61626c653a206e6577206f776e657220697320746865207a65726f206160448201526564647265737360d01b606482015260840161029d565b6103888161068e565b50565b600160007f00000000000000000000000000000000000000000000000000000000000000006001600160a01b031663feaf968c6040518163ffffffff1660e01b815260040160a06040518083038186803b1580156103e857600080fd5b505afa1580156103fc573d6000803e3d6000fd5b505050506040513d601f19601f820116820180604052508101906104209190610af9565b5050509150506000811361046c5760405162461bcd60e51b81526020600482015260136024820152724c494e4b5f50524943455f4e4547415449564560681b604482015260640161029d565b60008161047b6012600a610bc3565b6104a57f000000000000000000000000000000000000000000000000000000000000000086610c70565b6104af9190610c70565b6104b99190610b60565b9050348111156105055760405162461bcd60e51b81526020600482015260176024820152764d494e545f494e53554646494349454e545f56414c554560481b604482015260640161029d565b60007f00000000000000000000000000000000000000000000000000000000000000006001600160a01b03166318160ddd6040518163ffffffff1660e01b815260040160206040518083038186803b15801561056057600080fd5b505afa158015610574573d6000803e3d6000fd5b505050506040513d601f19601f820116820180604052508101906105989190610ae1565b6040516340c10f1960e01b81526001600160a01b038781166004830152602482018390529192507f0000000000000000000000000000000000000000000000000000000000000000909116906340c10f1990604401600060405180830381600087803b15801561060757600080fd5b505af115801561061b573d6000803e3d6000fd5b5050503483810392508314905061063657610636338261063d565b5050505050565b600080600080600085875af19050806102365760405162461bcd60e51b815260206004820152601360248201527211551217d514905394d1915497d19052531151606a1b604482015260640161029d565b600080546001600160a01b038381166001600160a01b0319831681178455604051919092169283917f8be0079c531659141344cd1fd0a4f28419497f9722a3daafe3b4186f6b6457e09190a35050565b8060007f00000000000000000000000000000000000000000000000000000000000000006001600160a01b031663feaf968c6040518163ffffffff1660e01b815260040160a06040518083038186803b15801561073a57600080fd5b505afa15801561074e573d6000803e3d6000fd5b505050506040513d601f19601f820116820180604052508101906107729190610af9565b505050915050600081136107be5760405162461bcd60e51b81526020600482015260136024820152724c494e4b5f50524943455f4e4547415449564560681b604482015260640161029d565b6000816107cd6012600a610bc3565b6107f77f000000000000000000000000000000000000000000000000000000000000000086610c70565b6108019190610c70565b61080b9190610b60565b9050348111156108575760405162461bcd60e51b81526020600482015260176024820152764d494e545f494e53554646494349454e545f56414c554560481b604482015260640161029d565b60007f00000000000000000000000000000000000000000000000000000000000000006001600160a01b03166318160ddd6040518163ffffffff1660e01b815260040160206040518083038186803b1580156108b257600080fd5b505afa1580156108c6573d6000803e3d6000fd5b505050506040513d601f19601f820116820180604052508101906108ea9190610ae1565b905060006108f88683610b48565b9050815b81811015610991576040516340c10f1960e01b81526001600160a01b038981166004830152602482018390527f000000000000000000000000000000000000000000000000000000000000000016906340c10f1990604401600060405180830381600087803b15801561096e57600080fd5b505af1158015610982573d6000803e3d6000fd5b505050508060010190506108fc565b505050348181039082146109a9576109a9338261063d565b505050505050565b60008083601f8401126109c2578182fd5b50813567ffffffffffffffff8111156109d9578182fd5b6020830191508360208260051b85010111156109f457600080fd5b9250929050565b805169ffffffffffffffffffff81168114610a1557600080fd5b919050565b600060208284031215610a2b578081fd5b81356001600160a01b0381168114610a41578182fd5b9392505050565b600080600060408486031215610a5c578182fd5b833567ffffffffffffffff811115610a72578283fd5b610a7e868287016109b1565b909790965060209590950135949350505050565b60008060008060608587031215610aa7578081fd5b843567ffffffffffffffff811115610abd578182fd5b610ac9878288016109b1565b90989097506020870135966040013595509350505050565b600060208284031215610af2578081fd5b5051919050565b600080600080600060a08688031215610b10578081fd5b610b19866109fb565b9450602086015193506040860151925060608601519150610b3c608087016109fb565b90509295509295909350565b60008219821115610b5b57610b5b610c8f565b500190565b600082610b7b57634e487b7160e01b81526012600452602481fd5b500490565b600181815b80851115610bbb578160001904821115610ba157610ba1610c8f565b80851615610bae57918102915b93841c9390800290610b85565b509250929050565b6000610a4160ff841683600082610bdc57506001610c6a565b81610be957506000610c6a565b8160018114610bff5760028114610c0957610c25565b6001915050610c6a565b60ff841115610c1a57610c1a610c8f565b50506001821b610c6a565b5060208310610133831016604e8410600b8410161715610c48575081810a610c6a565b610c528383610b80565b8060001904821115610c6657610c66610c8f565b0290505b92915050565b6000816000190483118215151615610c8a57610c8a610c8f565b500290565b634e487b7160e01b600052601160045260246000fdfea2646970667358221220be504d7ba43e4904d4753d71f5f4e8ae1d335aff263ccaba5f46b7b35e46e0ea64736f6c63430008040033",
  "devdoc": {
    "kind": "dev",
    "methods": {
      "owner()": {
        "details": "Returns the address of the current owner."
      },
      "renounceOwnership()": {
        "details": "Leaves the contract without owner. It will not be possible to call `onlyOwner` functions anymore. Can only be called by the current owner. NOTE: Renouncing ownership will leave the contract without an owner, thereby removing any functionality that is only available to the owner."
      },
      "transferOwnership(address)": {
        "details": "Transfers ownership of the contract to a new account (`newOwner`). Can only be called by the current owner."
      }
    },
    "version": 1
  },
  "userdoc": {
    "kind": "user",
    "methods": {},
    "version": 1
  },
  "storageLayout": {
    "storage": [
      {
        "astId": 1944,
        "contract": "contracts/minters/OpenMinter.sol:OpenMinter",
        "label": "_owner",
        "offset": 0,
        "slot": "0",
        "type": "t_address"
      },
      {
        "astId": 5516,
        "contract": "contracts/minters/OpenMinter.sol:OpenMinter",
        "label": "verified",
        "offset": 0,
        "slot": "1",
        "type": "t_mapping(t_address,t_bool)"
      }
    ],
    "types": {
      "t_address": {
        "encoding": "inplace",
        "label": "address",
        "numberOfBytes": "20"
      },
      "t_bool": {
        "encoding": "inplace",
        "label": "bool",
        "numberOfBytes": "1"
      },
      "t_mapping(t_address,t_bool)": {
        "encoding": "mapping",
        "key": "t_address",
        "label": "mapping(address => bool)",
        "numberOfBytes": "32",
        "value": "t_bool"
      }
    }
  }
}