{
  "address": "0xDAA9e8d7880776b79AF0565926976d00C18530bD",
  "abi": [
    {
      "anonymous": false,
      "inputs": [
        {
          "indexed": true,
          "internalType": "contract IERC20Upgradeable",
          "name": "token",
          "type": "address"
        },
        {
          "indexed": false,
          "internalType": "address",
          "name": "to",
          "type": "address"
        },
        {
          "indexed": false,
          "internalType": "uint256",
          "name": "amount",
          "type": "uint256"
        }
      ],
      "name": "ERC20PaymentReleased",
      "type": "event"
    },
    {
      "anonymous": false,
      "inputs": [
        {
          "indexed": false,
          "internalType": "address",
          "name": "account",
          "type": "address"
        },
        {
          "indexed": false,
          "internalType": "uint256",
          "name": "shares",
          "type": "uint256"
        }
      ],
      "name": "PayeeAdded",
      "type": "event"
    },
    {
      "anonymous": false,
      "inputs": [
        {
          "indexed": false,
          "internalType": "address",
          "name": "from",
          "type": "address"
        },
        {
          "indexed": false,
          "internalType": "uint256",
          "name": "amount",
          "type": "uint256"
        }
      ],
      "name": "PaymentReceived",
      "type": "event"
    },
    {
      "anonymous": false,
      "inputs": [
        {
          "indexed": false,
          "internalType": "address",
          "name": "to",
          "type": "address"
        },
        {
          "indexed": false,
          "internalType": "uint256",
          "name": "amount",
          "type": "uint256"
        }
      ],
      "name": "PaymentReleased",
      "type": "event"
    },
    {
      "inputs": [
        {
          "internalType": "address[]",
          "name": "payees",
          "type": "address[]"
        },
        {
          "internalType": "uint256[]",
          "name": "shares",
          "type": "uint256[]"
        }
      ],
      "name": "initialize",
      "outputs": [],
      "stateMutability": "nonpayable",
      "type": "function"
    },
    {
      "inputs": [
        {
          "internalType": "uint256",
          "name": "index",
          "type": "uint256"
        }
      ],
      "name": "payee",
      "outputs": [
        {
          "internalType": "address",
          "name": "",
          "type": "address"
        }
      ],
      "stateMutability": "view",
      "type": "function"
    },
    {
      "inputs": [
        {
          "internalType": "address payable",
          "name": "account",
          "type": "address"
        }
      ],
      "name": "release",
      "outputs": [],
      "stateMutability": "nonpayable",
      "type": "function"
    },
    {
      "inputs": [
        {
          "internalType": "contract IERC20Upgradeable",
          "name": "",
          "type": "address"
        },
        {
          "internalType": "address",
          "name": "",
          "type": "address"
        }
      ],
      "name": "release",
      "outputs": [],
      "stateMutability": "nonpayable",
      "type": "function"
    },
    {
      "inputs": [
        {
          "internalType": "contract IERC20Upgradeable",
          "name": "token",
          "type": "address"
        },
        {
          "internalType": "address",
          "name": "account",
          "type": "address"
        }
      ],
      "name": "released",
      "outputs": [
        {
          "internalType": "uint256",
          "name": "",
          "type": "uint256"
        }
      ],
      "stateMutability": "view",
      "type": "function"
    },
    {
      "inputs": [
        {
          "internalType": "address",
          "name": "account",
          "type": "address"
        }
      ],
      "name": "released",
      "outputs": [
        {
          "internalType": "uint256",
          "name": "",
          "type": "uint256"
        }
      ],
      "stateMutability": "view",
      "type": "function"
    },
    {
      "inputs": [
        {
          "internalType": "address",
          "name": "account",
          "type": "address"
        }
      ],
      "name": "shares",
      "outputs": [
        {
          "internalType": "uint256",
          "name": "",
          "type": "uint256"
        }
      ],
      "stateMutability": "view",
      "type": "function"
    },
    {
      "inputs": [
        {
          "internalType": "contract IERC20Upgradeable",
          "name": "token",
          "type": "address"
        }
      ],
      "name": "totalReleased",
      "outputs": [
        {
          "internalType": "uint256",
          "name": "",
          "type": "uint256"
        }
      ],
      "stateMutability": "view",
      "type": "function"
    },
    {
      "inputs": [],
      "name": "totalReleased",
      "outputs": [
        {
          "internalType": "uint256",
          "name": "",
          "type": "uint256"
        }
      ],
      "stateMutability": "view",
      "type": "function"
    },
    {
      "inputs": [],
      "name": "totalShares",
      "outputs": [
        {
          "internalType": "uint256",
          "name": "",
          "type": "uint256"
        }
      ],
      "stateMutability": "view",
      "type": "function"
    },
    {
      "stateMutability": "payable",
      "type": "receive"
    }
  ],
  "transactionHash": "0xa1420d89f0fa82493c55a100f404c340fe1a98c427d4d3f984fc43f12735ebe8",
  "args": [],
  "numDeployments": 1,
  "solcInputHash": "4ad5d465a464d7539ad6ec7eb5908f3a",
  "bytecode": "0x608060405234801561001057600080fd5b50610f03806100206000396000f3fe6080604052600436106100b55760003560e01c80638b83209b11610069578063ce7c2ac21161004e578063ce7c2ac214610222578063d79779b214610265578063e33b7de3146102a857600080fd5b80638b83209b1461019a5780639852595c146101df57600080fd5b8063406072a91161009a578063406072a91461010757806348b750441461015a5780637fbbe46f1461017a57600080fd5b806319165587146100c15780633a98ef39146100e357600080fd5b366100bc57005b600080fd5b3480156100cd57600080fd5b506100e16100dc366004610c62565b6102bd565b005b3480156100ef57600080fd5b506033545b6040519081526020015b60405180910390f35b34801561011357600080fd5b506100f4610122366004610c86565b73ffffffffffffffffffffffffffffffffffffffff918216600090815260396020908152604080832093909416825291909152205490565b34801561016657600080fd5b506100e1610175366004610c86565b6104d3565b34801561018657600080fd5b506100e1610195366004610d0b565b61051b565b3480156101a657600080fd5b506101ba6101b5366004610d77565b61068e565b60405173ffffffffffffffffffffffffffffffffffffffff90911681526020016100fe565b3480156101eb57600080fd5b506100f46101fa366004610c62565b73ffffffffffffffffffffffffffffffffffffffff1660009081526036602052604090205490565b34801561022e57600080fd5b506100f461023d366004610c62565b73ffffffffffffffffffffffffffffffffffffffff1660009081526035602052604090205490565b34801561027157600080fd5b506100f4610280366004610c62565b73ffffffffffffffffffffffffffffffffffffffff1660009081526038602052604090205490565b3480156102b457600080fd5b506034546100f4565b73ffffffffffffffffffffffffffffffffffffffff811660009081526035602052604090205461035a5760405162461bcd60e51b815260206004820152602660248201527f5061796d656e7453706c69747465723a206163636f756e7420686173206e6f2060448201527f736861726573000000000000000000000000000000000000000000000000000060648201526084015b60405180910390fd5b600061036560345490565b61036f9047610dbf565b905060006103a983836103a48673ffffffffffffffffffffffffffffffffffffffff1660009081526036602052604090205490565b6106cb565b9050806000036104215760405162461bcd60e51b815260206004820152602b60248201527f5061796d656e7453706c69747465723a206163636f756e74206973206e6f742060448201527f647565207061796d656e740000000000000000000000000000000000000000006064820152608401610351565b73ffffffffffffffffffffffffffffffffffffffff831660009081526036602052604081208054839290610456908490610dbf565b92505081905550806034600082825461046f9190610dbf565b9091555061047f9050838261071e565b6040805173ffffffffffffffffffffffffffffffffffffffff85168152602081018390527fdf20fd1e76bc69d672e4814fafb2c449bba3a5369d8359adf9e05e6fde87b056910160405180910390a1505050565b60405162461bcd60e51b815260206004820152600860248201527f44495341424c45440000000000000000000000000000000000000000000000006044820152606401610351565b600054610100900460ff166105365760005460ff161561053a565b303b155b6105ac5760405162461bcd60e51b815260206004820152602e60248201527f496e697469616c697a61626c653a20636f6e747261637420697320616c72656160448201527f647920696e697469616c697a65640000000000000000000000000000000000006064820152608401610351565b600054610100900460ff161580156105eb57600080547fffffffffffffffffffffffffffffffffffffffffffffffffffffffffffff0000166101011790555b6106588585808060200260200160405190810160405280939291908181526020018383602002808284376000920191909152505060408051602080890282810182019093528882529093508892508791829185019084908082843760009201919091525061084992505050565b801561068757600080547fffffffffffffffffffffffffffffffffffffffffffffffffffffffffffff00ff1690555b5050505050565b6000603782815481106106a3576106a3610dd7565b60009182526020909120015473ffffffffffffffffffffffffffffffffffffffff1692915050565b60335473ffffffffffffffffffffffffffffffffffffffff8416600090815260356020526040812054909183916107029086610e06565b61070c9190610e43565b6107169190610e7e565b949350505050565b8047101561076e5760405162461bcd60e51b815260206004820152601d60248201527f416464726573733a20696e73756666696369656e742062616c616e63650000006044820152606401610351565b60008273ffffffffffffffffffffffffffffffffffffffff168260405160006040518083038185875af1925050503d80600081146107c8576040519150601f19603f3d011682016040523d82523d6000602084013e6107cd565b606091505b50509050806108445760405162461bcd60e51b815260206004820152603a60248201527f416464726573733a20756e61626c6520746f2073656e642076616c75652c207260448201527f6563697069656e74206d617920686176652072657665727465640000000000006064820152608401610351565b505050565b600054610100900460ff166108c65760405162461bcd60e51b815260206004820152602b60248201527f496e697469616c697a61626c653a20636f6e7472616374206973206e6f74206960448201527f6e697469616c697a696e670000000000000000000000000000000000000000006064820152608401610351565b805182511461093d5760405162461bcd60e51b815260206004820152603260248201527f5061796d656e7453706c69747465723a2070617965657320616e64207368617260448201527f6573206c656e677468206d69736d6174636800000000000000000000000000006064820152608401610351565b600082511161098e5760405162461bcd60e51b815260206004820152601a60248201527f5061796d656e7453706c69747465723a206e6f207061796565730000000000006044820152606401610351565b60005b8251811015610844576109d68382815181106109af576109af610dd7565b60200260200101518383815181106109c9576109c9610dd7565b60200260200101516109e8565b806109e081610e95565b915050610991565b73ffffffffffffffffffffffffffffffffffffffff8216610a715760405162461bcd60e51b815260206004820152602c60248201527f5061796d656e7453706c69747465723a206163636f756e74206973207468652060448201527f7a65726f206164647265737300000000000000000000000000000000000000006064820152608401610351565b60008111610ac15760405162461bcd60e51b815260206004820152601d60248201527f5061796d656e7453706c69747465723a207368617265732061726520300000006044820152606401610351565b73ffffffffffffffffffffffffffffffffffffffff821660009081526035602052604090205415610b5a5760405162461bcd60e51b815260206004820152602b60248201527f5061796d656e7453706c69747465723a206163636f756e7420616c726561647960448201527f20686173207368617265730000000000000000000000000000000000000000006064820152608401610351565b60378054600181019091557f42a7b7dd785cd69714a189dffb3fd7d7174edc9ece837694ce50f7078f7c31ae0180547fffffffffffffffffffffffff00000000000000000000000000000000000000001673ffffffffffffffffffffffffffffffffffffffff84169081179091556000908152603560205260409020819055603354610be7908290610dbf565b6033556040805173ffffffffffffffffffffffffffffffffffffffff84168152602081018390527f40c340f65e17194d14ddddb073d3c9f888e3cb52b5aae0c6c7706b4fbc905fac910160405180910390a15050565b73ffffffffffffffffffffffffffffffffffffffff81168114610c5f57600080fd5b50565b600060208284031215610c7457600080fd5b8135610c7f81610c3d565b9392505050565b60008060408385031215610c9957600080fd5b8235610ca481610c3d565b91506020830135610cb481610c3d565b809150509250929050565b60008083601f840112610cd157600080fd5b50813567ffffffffffffffff811115610ce957600080fd5b6020830191508360208260051b8501011115610d0457600080fd5b9250929050565b60008060008060408587031215610d2157600080fd5b843567ffffffffffffffff80821115610d3957600080fd5b610d4588838901610cbf565b90965094506020870135915080821115610d5e57600080fd5b50610d6b87828801610cbf565b95989497509550505050565b600060208284031215610d8957600080fd5b5035919050565b7f4e487b7100000000000000000000000000000000000000000000000000000000600052601160045260246000fd5b60008219821115610dd257610dd2610d90565b500190565b7f4e487b7100000000000000000000000000000000000000000000000000000000600052603260045260246000fd5b6000817fffffffffffffffffffffffffffffffffffffffffffffffffffffffffffffffff0483118215151615610e3e57610e3e610d90565b500290565b600082610e79577f4e487b7100000000000000000000000000000000000000000000000000000000600052601260045260246000fd5b500490565b600082821015610e9057610e90610d90565b500390565b60007fffffffffffffffffffffffffffffffffffffffffffffffffffffffffffffffff8203610ec657610ec6610d90565b506001019056fea2646970667358221220c66fb2564194b5ec9d5203ce4f3fed374a2f327d0208519b6d4fdf5a3dc58a7964736f6c634300080d0033",
  "devdoc": {
    "kind": "dev",
    "methods": {
      "payee(uint256)": {
        "details": "Getter for the address of the payee number `index`."
      },
      "release(address)": {
        "details": "Triggers a transfer to `account` of the amount of Ether they are owed, according to their percentage of the total shares and their previous withdrawals."
      },
      "released(address)": {
        "details": "Getter for the amount of Ether already released to a payee."
      },
      "released(address,address)": {
        "details": "Getter for the amount of `token` tokens already released to a payee. `token` should be the address of an IERC20 contract."
      },
      "shares(address)": {
        "details": "Getter for the amount of shares held by an account."
      },
      "totalReleased()": {
        "details": "Getter for the total amount of Ether already released."
      },
      "totalReleased(address)": {
        "details": "Getter for the total amount of `token` already released. `token` should be the address of an IERC20 contract."
      },
      "totalShares()": {
        "details": "Getter for the total shares held by payees."
      }
    },
    "version": 1
  },
  "userdoc": {
    "kind": "user",
    "methods": {
      "release(address,address)": {
        "notice": "disabled erc20"
      }
    },
    "version": 1
  },
  "storageLayout": {
    "storage": [
      {
        "astId": 644,
        "contract": "contracts/splitter/OwnedSplitterV1.sol:OwnedSplitterV1",
        "label": "_initialized",
        "offset": 0,
        "slot": "0",
        "type": "t_bool"
      },
      {
        "astId": 647,
        "contract": "contracts/splitter/OwnedSplitterV1.sol:OwnedSplitterV1",
        "label": "_initializing",
        "offset": 1,
        "slot": "0",
        "type": "t_bool"
      },
      {
        "astId": 1935,
        "contract": "contracts/splitter/OwnedSplitterV1.sol:OwnedSplitterV1",
        "label": "__gap",
        "offset": 0,
        "slot": "1",
        "type": "t_array(t_uint256)50_storage"
      },
      {
        "astId": 209,
        "contract": "contracts/splitter/OwnedSplitterV1.sol:OwnedSplitterV1",
        "label": "_totalShares",
        "offset": 0,
        "slot": "51",
        "type": "t_uint256"
      },
      {
        "astId": 211,
        "contract": "contracts/splitter/OwnedSplitterV1.sol:OwnedSplitterV1",
        "label": "_totalReleased",
        "offset": 0,
        "slot": "52",
        "type": "t_uint256"
      },
      {
        "astId": 215,
        "contract": "contracts/splitter/OwnedSplitterV1.sol:OwnedSplitterV1",
        "label": "_shares",
        "offset": 0,
        "slot": "53",
        "type": "t_mapping(t_address,t_uint256)"
      },
      {
        "astId": 219,
        "contract": "contracts/splitter/OwnedSplitterV1.sol:OwnedSplitterV1",
        "label": "_released",
        "offset": 0,
        "slot": "54",
        "type": "t_mapping(t_address,t_uint256)"
      },
      {
        "astId": 222,
        "contract": "contracts/splitter/OwnedSplitterV1.sol:OwnedSplitterV1",
        "label": "_payees",
        "offset": 0,
        "slot": "55",
        "type": "t_array(t_address)dyn_storage"
      },
      {
        "astId": 227,
        "contract": "contracts/splitter/OwnedSplitterV1.sol:OwnedSplitterV1",
        "label": "_erc20TotalReleased",
        "offset": 0,
        "slot": "56",
        "type": "t_mapping(t_contract(IERC20Upgradeable)1402,t_uint256)"
      },
      {
        "astId": 234,
        "contract": "contracts/splitter/OwnedSplitterV1.sol:OwnedSplitterV1",
        "label": "_erc20Released",
        "offset": 0,
        "slot": "57",
        "type": "t_mapping(t_contract(IERC20Upgradeable)1402,t_mapping(t_address,t_uint256))"
      },
      {
        "astId": 636,
        "contract": "contracts/splitter/OwnedSplitterV1.sol:OwnedSplitterV1",
        "label": "__gap",
        "offset": 0,
        "slot": "58",
        "type": "t_array(t_uint256)43_storage"
      }
    ],
    "types": {
      "t_address": {
        "encoding": "inplace",
        "label": "address",
        "numberOfBytes": "20"
      },
      "t_array(t_address)dyn_storage": {
        "base": "t_address",
        "encoding": "dynamic_array",
        "label": "address[]",
        "numberOfBytes": "32"
      },
      "t_array(t_uint256)43_storage": {
        "base": "t_uint256",
        "encoding": "inplace",
        "label": "uint256[43]",
        "numberOfBytes": "1376"
      },
      "t_array(t_uint256)50_storage": {
        "base": "t_uint256",
        "encoding": "inplace",
        "label": "uint256[50]",
        "numberOfBytes": "1600"
      },
      "t_bool": {
        "encoding": "inplace",
        "label": "bool",
        "numberOfBytes": "1"
      },
      "t_contract(IERC20Upgradeable)1402": {
        "encoding": "inplace",
        "label": "contract IERC20Upgradeable",
        "numberOfBytes": "20"
      },
      "t_mapping(t_address,t_uint256)": {
        "encoding": "mapping",
        "key": "t_address",
        "label": "mapping(address => uint256)",
        "numberOfBytes": "32",
        "value": "t_uint256"
      },
      "t_mapping(t_contract(IERC20Upgradeable)1402,t_mapping(t_address,t_uint256))": {
        "encoding": "mapping",
        "key": "t_contract(IERC20Upgradeable)1402",
        "label": "mapping(contract IERC20Upgradeable => mapping(address => uint256))",
        "numberOfBytes": "32",
        "value": "t_mapping(t_address,t_uint256)"
      },
      "t_mapping(t_contract(IERC20Upgradeable)1402,t_uint256)": {
        "encoding": "mapping",
        "key": "t_contract(IERC20Upgradeable)1402",
        "label": "mapping(contract IERC20Upgradeable => uint256)",
        "numberOfBytes": "32",
        "value": "t_uint256"
      },
      "t_uint256": {
        "encoding": "inplace",
        "label": "uint256",
        "numberOfBytes": "32"
      }
    }
  }
}