{
  "address": "0x0239A8aB5e65aD69a921C9c046546235eB97cd2b",
  "abi": [
    {
      "anonymous": false,
      "inputs": [
        {
          "indexed": true,
          "internalType": "address",
          "name": "owner",
          "type": "address"
        },
        {
          "indexed": true,
          "internalType": "address",
          "name": "spender",
          "type": "address"
        },
        {
          "indexed": false,
          "internalType": "uint256",
          "name": "value",
          "type": "uint256"
        }
      ],
      "name": "Approval",
      "type": "event"
    },
    {
      "anonymous": false,
      "inputs": [
        {
          "indexed": true,
          "internalType": "address",
          "name": "previousOwner",
          "type": "address"
        },
        {
          "indexed": true,
          "internalType": "address",
          "name": "newOwner",
          "type": "address"
        }
      ],
      "name": "OwnershipTransferred",
      "type": "event"
    },
    {
      "anonymous": false,
      "inputs": [
        {
          "indexed": true,
          "internalType": "address",
          "name": "from",
          "type": "address"
        },
        {
          "indexed": true,
          "internalType": "address",
          "name": "to",
          "type": "address"
        },
        {
          "indexed": false,
          "internalType": "uint256",
          "name": "value",
          "type": "uint256"
        }
      ],
      "name": "Transfer",
      "type": "event"
    },
    {
      "inputs": [
        {
          "internalType": "address",
          "name": "owner",
          "type": "address"
        },
        {
          "internalType": "address",
          "name": "spender",
          "type": "address"
        }
      ],
      "name": "allowance",
      "outputs": [
        {
          "internalType": "uint256",
          "name": "",
          "type": "uint256"
        }
      ],
      "stateMutability": "view",
      "type": "function"
    },
    {
      "inputs": [
        {
          "internalType": "address",
          "name": "",
          "type": "address"
        },
        {
          "internalType": "uint256",
          "name": "",
          "type": "uint256"
        }
      ],
      "name": "approve",
      "outputs": [
        {
          "internalType": "bool",
          "name": "",
          "type": "bool"
        }
      ],
      "stateMutability": "pure",
      "type": "function"
    },
    {
      "inputs": [
        {
          "internalType": "address",
          "name": "addr",
          "type": "address"
        }
      ],
      "name": "balanceOf",
      "outputs": [
        {
          "internalType": "uint256",
          "name": "",
          "type": "uint256"
        }
      ],
      "stateMutability": "view",
      "type": "function"
    },
    {
      "inputs": [],
      "name": "decimals",
      "outputs": [
        {
          "internalType": "uint8",
          "name": "",
          "type": "uint8"
        }
      ],
      "stateMutability": "view",
      "type": "function"
    },
    {
      "inputs": [
        {
          "internalType": "address",
          "name": "",
          "type": "address"
        },
        {
          "internalType": "uint256",
          "name": "",
          "type": "uint256"
        }
      ],
      "name": "decreaseAllowance",
      "outputs": [
        {
          "internalType": "bool",
          "name": "",
          "type": "bool"
        }
      ],
      "stateMutability": "pure",
      "type": "function"
    },
    {
      "inputs": [
        {
          "internalType": "address",
          "name": "",
          "type": "address"
        },
        {
          "internalType": "uint256",
          "name": "",
          "type": "uint256"
        }
      ],
      "name": "increaseAllowance",
      "outputs": [
        {
          "internalType": "bool",
          "name": "",
          "type": "bool"
        }
      ],
      "stateMutability": "pure",
      "type": "function"
    },
    {
      "inputs": [],
      "name": "initialize",
      "outputs": [],
      "stateMutability": "nonpayable",
      "type": "function"
    },
    {
      "inputs": [],
      "name": "name",
      "outputs": [
        {
          "internalType": "string",
          "name": "",
          "type": "string"
        }
      ],
      "stateMutability": "view",
      "type": "function"
    },
    {
      "inputs": [],
      "name": "nft",
      "outputs": [
        {
          "internalType": "address",
          "name": "",
          "type": "address"
        }
      ],
      "stateMutability": "view",
      "type": "function"
    },
    {
      "inputs": [],
      "name": "owner",
      "outputs": [
        {
          "internalType": "address",
          "name": "",
          "type": "address"
        }
      ],
      "stateMutability": "view",
      "type": "function"
    },
    {
      "inputs": [],
      "name": "renounceOwnership",
      "outputs": [],
      "stateMutability": "nonpayable",
      "type": "function"
    },
    {
      "inputs": [
        {
          "internalType": "address",
          "name": "addr",
          "type": "address"
        }
      ],
      "name": "setNFT",
      "outputs": [],
      "stateMutability": "nonpayable",
      "type": "function"
    },
    {
      "inputs": [],
      "name": "symbol",
      "outputs": [
        {
          "internalType": "string",
          "name": "",
          "type": "string"
        }
      ],
      "stateMutability": "view",
      "type": "function"
    },
    {
      "inputs": [],
      "name": "totalSupply",
      "outputs": [
        {
          "internalType": "uint256",
          "name": "",
          "type": "uint256"
        }
      ],
      "stateMutability": "view",
      "type": "function"
    },
    {
      "inputs": [
        {
          "internalType": "address",
          "name": "",
          "type": "address"
        },
        {
          "internalType": "uint256",
          "name": "",
          "type": "uint256"
        }
      ],
      "name": "transfer",
      "outputs": [
        {
          "internalType": "bool",
          "name": "",
          "type": "bool"
        }
      ],
      "stateMutability": "pure",
      "type": "function"
    },
    {
      "inputs": [
        {
          "internalType": "address",
          "name": "",
          "type": "address"
        },
        {
          "internalType": "address",
          "name": "",
          "type": "address"
        },
        {
          "internalType": "uint256",
          "name": "",
          "type": "uint256"
        }
      ],
      "name": "transferFrom",
      "outputs": [
        {
          "internalType": "bool",
          "name": "",
          "type": "bool"
        }
      ],
      "stateMutability": "pure",
      "type": "function"
    },
    {
      "inputs": [
        {
          "internalType": "address",
          "name": "newOwner",
          "type": "address"
        }
      ],
      "name": "transferOwnership",
      "outputs": [],
      "stateMutability": "nonpayable",
      "type": "function"
    }
  ],
  "transactionHash": "0x0ddfddd0084e5780f6168371cc92f1324a3cc55aac877c39ae7da313aec39b08",
  "args": [],
  "numDeployments": 1,
  "solcInputHash": "e787e50d6c41b80f1e380d6403a6e1ff",
  "bytecode": "0x608060405234801561001057600080fd5b50610b2b806100206000396000f3fe608060405234801561001057600080fd5b506004361061010b5760003560e01c8063715018a6116100a2578063a457c2d711610071578063a457c2d71461012e578063a9059cbb1461012e578063dd62ed3e146101e7578063f2fde38b14610220578063f56e9c661461023357600080fd5b8063715018a6146101bc5780638129fc1c146101c65780638da5cb5b146101ce57806395d89b41146101df57600080fd5b8063313ce567116100de578063313ce56714610175578063395093511461012e57806347ccca021461018457806370a08231146101a957600080fd5b806306fdde0314610110578063095ea7b31461012e57806318160ddd1461015157806323b872dd14610167575b600080fd5b610118610246565b60405161012591906108c4565b60405180910390f35b61014161013c366004610883565b6102d8565b6040519015158152602001610125565b610159610313565b604051908152602001610125565b61014161013c366004610848565b60405160128152602001610125565b6097546001600160a01b03165b6040516001600160a01b039091168152602001610125565b6101596101b73660046107f5565b610334565b6101c46103db565b005b6101c4610411565b6065546001600160a01b0316610191565b610118610514565b6101596101f5366004610816565b6001600160a01b03918216600090815260346020908152604080832093909416825291909152205490565b6101c461022e3660046107f5565b610523565b6101c46102413660046107f5565b6105bb565b60606036805461025590610aa4565b80601f016020809104026020016040519081016040528092919081815260200182805461028190610aa4565b80156102ce5780601f106102a3576101008083540402835291602001916102ce565b820191906000526020600020905b8154815290600101906020018083116102b157829003601f168201915b5050505050905090565b60405162461bcd60e51b8152602060048201526008602482015267111254d05093115160c21b60448201526000906064015b60405180910390fd5b60006103216012600a6109da565b61032f906311e1a300610a85565b905090565b60006103426012600a6109da565b6097546040516370a0823160e01b81526001600160a01b038581166004830152909116906370a082319060240160206040518083038186803b15801561038757600080fd5b505afa15801561039b573d6000803e3d6000fd5b505050506040513d601f19601f820116820180604052508101906103bf91906108ac565b6103cb906103e8610a85565b6103d59190610a85565b92915050565b6065546001600160a01b031633146104055760405162461bcd60e51b815260040161030a90610917565b61040f6000610607565b565b600054610100900460ff1661042c5760005460ff1615610430565b303b155b6104935760405162461bcd60e51b815260206004820152602e60248201527f496e697469616c697a61626c653a20636f6e747261637420697320616c72656160448201526d191e481a5b9a5d1a585b1a5e995960921b606482015260840161030a565b600054610100900460ff161580156104b5576000805461ffff19166101011790555b6104f7604051806040016040528060048152602001635275627960e01b815250604051806040016040528060048152602001635255425960e01b815250610659565b6104ff61068e565b8015610511576000805461ff00191690555b50565b60606037805461025590610aa4565b6065546001600160a01b0316331461054d5760405162461bcd60e51b815260040161030a90610917565b6001600160a01b0381166105b25760405162461bcd60e51b815260206004820152602660248201527f4f776e61626c653a206e6577206f776e657220697320746865207a65726f206160448201526564647265737360d01b606482015260840161030a565b61051181610607565b6065546001600160a01b031633146105e55760405162461bcd60e51b815260040161030a90610917565b609780546001600160a01b0319166001600160a01b0392909216919091179055565b606580546001600160a01b038381166001600160a01b0319831681179093556040519116919082907f8be0079c531659141344cd1fd0a4f28419497f9722a3daafe3b4186f6b6457e090600090a35050565b600054610100900460ff166106805760405162461bcd60e51b815260040161030a9061094c565b61068a82826106bd565b5050565b600054610100900460ff166106b55760405162461bcd60e51b815260040161030a9061094c565b61040f610710565b600054610100900460ff166106e45760405162461bcd60e51b815260040161030a9061094c565b81516106f7906036906020850190610740565b50805161070b906037906020840190610740565b505050565b600054610100900460ff166107375760405162461bcd60e51b815260040161030a9061094c565b61040f33610607565b82805461074c90610aa4565b90600052602060002090601f01602090048101928261076e57600085556107b4565b82601f1061078757805160ff19168380011785556107b4565b828001600101855582156107b4579182015b828111156107b4578251825591602001919060010190610799565b506107c09291506107c4565b5090565b5b808211156107c057600081556001016107c5565b80356001600160a01b03811681146107f057600080fd5b919050565b600060208284031215610806578081fd5b61080f826107d9565b9392505050565b60008060408385031215610828578081fd5b610831836107d9565b915061083f602084016107d9565b90509250929050565b60008060006060848603121561085c578081fd5b610865846107d9565b9250610873602085016107d9565b9150604084013590509250925092565b60008060408385031215610895578182fd5b61089e836107d9565b946020939093013593505050565b6000602082840312156108bd578081fd5b5051919050565b6000602080835283518082850152825b818110156108f0578581018301518582016040015282016108d4565b818111156109015783604083870101525b50601f01601f1916929092016040019392505050565b6020808252818101527f4f776e61626c653a2063616c6c6572206973206e6f7420746865206f776e6572604082015260600190565b6020808252602b908201527f496e697469616c697a61626c653a20636f6e7472616374206973206e6f74206960408201526a6e697469616c697a696e6760a81b606082015260800190565b600181815b808511156109d25781600019048211156109b8576109b8610adf565b808516156109c557918102915b93841c939080029061099c565b509250929050565b600061080f60ff8416836000826109f3575060016103d5565b81610a00575060006103d5565b8160018114610a165760028114610a2057610a3c565b60019150506103d5565b60ff841115610a3157610a31610adf565b50506001821b6103d5565b5060208310610133831016604e8410600b8410161715610a5f575081810a6103d5565b610a698383610997565b8060001904821115610a7d57610a7d610adf565b029392505050565b6000816000190483118215151615610a9f57610a9f610adf565b500290565b600181811c90821680610ab857607f821691505b60208210811415610ad957634e487b7160e01b600052602260045260246000fd5b50919050565b634e487b7160e01b600052601160045260246000fdfea26469706673582212200ad882c26abd7b4246fa23c4d40b859ffc2e53fff039e84c69ba54a64aeae72064736f6c63430008040033",
  "devdoc": {
    "kind": "dev",
    "methods": {
      "allowance(address,address)": {
        "details": "See {IERC20-allowance}."
      },
      "decimals()": {
        "details": "Returns the number of decimals used to get its user representation. For example, if `decimals` equals `2`, a balance of `505` tokens should be displayed to a user as `5.05` (`505 / 10 ** 2`). Tokens usually opt for a value of 18, imitating the relationship between Ether and Wei. This is the value {ERC20} uses, unless this function is overridden; NOTE: This information is only used for _display_ purposes: it in no way affects any of the arithmetic of the contract, including {IERC20-balanceOf} and {IERC20-transfer}."
      },
      "name()": {
        "details": "Returns the name of the token."
      },
      "owner()": {
        "details": "Returns the address of the current owner."
      },
      "renounceOwnership()": {
        "details": "Leaves the contract without owner. It will not be possible to call `onlyOwner` functions anymore. Can only be called by the current owner. NOTE: Renouncing ownership will leave the contract without an owner, thereby removing any functionality that is only available to the owner."
      },
      "symbol()": {
        "details": "Returns the symbol of the token, usually a shorter version of the name."
      },
      "totalSupply()": {
        "details": "See {IERC20-totalSupply}."
      },
      "transferOwnership(address)": {
        "details": "Transfers ownership of the contract to a new account (`newOwner`). Can only be called by the current owner."
      }
    },
    "version": 1
  },
  "userdoc": {
    "kind": "user",
    "methods": {
      "balanceOf(address)": {
        "notice": "ERC20 Functions "
      },
      "setNFT(address)": {
        "notice": "Admin functions "
      }
    },
    "version": 1
  },
  "storageLayout": {
    "storage": [
      {
        "astId": 644,
        "contract": "contracts/token/RubyToken.sol:RubyToken",
        "label": "_initialized",
        "offset": 0,
        "slot": "0",
        "type": "t_bool"
      },
      {
        "astId": 647,
        "contract": "contracts/token/RubyToken.sol:RubyToken",
        "label": "_initializing",
        "offset": 1,
        "slot": "0",
        "type": "t_bool"
      },
      {
        "astId": 1935,
        "contract": "contracts/token/RubyToken.sol:RubyToken",
        "label": "__gap",
        "offset": 0,
        "slot": "1",
        "type": "t_array(t_uint256)50_storage"
      },
      {
        "astId": 730,
        "contract": "contracts/token/RubyToken.sol:RubyToken",
        "label": "_balances",
        "offset": 0,
        "slot": "51",
        "type": "t_mapping(t_address,t_uint256)"
      },
      {
        "astId": 736,
        "contract": "contracts/token/RubyToken.sol:RubyToken",
        "label": "_allowances",
        "offset": 0,
        "slot": "52",
        "type": "t_mapping(t_address,t_mapping(t_address,t_uint256))"
      },
      {
        "astId": 738,
        "contract": "contracts/token/RubyToken.sol:RubyToken",
        "label": "_totalSupply",
        "offset": 0,
        "slot": "53",
        "type": "t_uint256"
      },
      {
        "astId": 740,
        "contract": "contracts/token/RubyToken.sol:RubyToken",
        "label": "_name",
        "offset": 0,
        "slot": "54",
        "type": "t_string_storage"
      },
      {
        "astId": 742,
        "contract": "contracts/token/RubyToken.sol:RubyToken",
        "label": "_symbol",
        "offset": 0,
        "slot": "55",
        "type": "t_string_storage"
      },
      {
        "astId": 1323,
        "contract": "contracts/token/RubyToken.sol:RubyToken",
        "label": "__gap",
        "offset": 0,
        "slot": "56",
        "type": "t_array(t_uint256)45_storage"
      },
      {
        "astId": 56,
        "contract": "contracts/token/RubyToken.sol:RubyToken",
        "label": "_owner",
        "offset": 0,
        "slot": "101",
        "type": "t_address"
      },
      {
        "astId": 168,
        "contract": "contracts/token/RubyToken.sol:RubyToken",
        "label": "__gap",
        "offset": 0,
        "slot": "102",
        "type": "t_array(t_uint256)49_storage"
      },
      {
        "astId": 7578,
        "contract": "contracts/token/RubyToken.sol:RubyToken",
        "label": "_nft",
        "offset": 0,
        "slot": "151",
        "type": "t_address"
      }
    ],
    "types": {
      "t_address": {
        "encoding": "inplace",
        "label": "address",
        "numberOfBytes": "20"
      },
      "t_array(t_uint256)45_storage": {
        "base": "t_uint256",
        "encoding": "inplace",
        "label": "uint256[45]",
        "numberOfBytes": "1440"
      },
      "t_array(t_uint256)49_storage": {
        "base": "t_uint256",
        "encoding": "inplace",
        "label": "uint256[49]",
        "numberOfBytes": "1568"
      },
      "t_array(t_uint256)50_storage": {
        "base": "t_uint256",
        "encoding": "inplace",
        "label": "uint256[50]",
        "numberOfBytes": "1600"
      },
      "t_bool": {
        "encoding": "inplace",
        "label": "bool",
        "numberOfBytes": "1"
      },
      "t_mapping(t_address,t_mapping(t_address,t_uint256))": {
        "encoding": "mapping",
        "key": "t_address",
        "label": "mapping(address => mapping(address => uint256))",
        "numberOfBytes": "32",
        "value": "t_mapping(t_address,t_uint256)"
      },
      "t_mapping(t_address,t_uint256)": {
        "encoding": "mapping",
        "key": "t_address",
        "label": "mapping(address => uint256)",
        "numberOfBytes": "32",
        "value": "t_uint256"
      },
      "t_string_storage": {
        "encoding": "bytes",
        "label": "string",
        "numberOfBytes": "32"
      },
      "t_uint256": {
        "encoding": "inplace",
        "label": "uint256",
        "numberOfBytes": "32"
      }
    }
  }
}